{
  "abi": [
    {
      "inputs": [
        {
          "internalType": "string",
          "name": "_name",
          "type": "string"
        },
        {
          "internalType": "string",
          "name": "_symbol",
          "type": "string"
        },
        {
          "internalType": "string",
          "name": "_baseURI",
          "type": "string"
        }
      ],
      "stateMutability": "nonpayable",
      "type": "constructor"
    },
    {
      "inputs": [],
      "name": "OverlayNFT_OnlyStakingContract",
      "type": "error"
    },
    {
      "anonymous": false,
      "inputs": [
        {
          "indexed": true,
          "internalType": "address",
          "name": "owner",
          "type": "address"
        },
        {
          "indexed": true,
          "internalType": "address",
          "name": "approved",
          "type": "address"
        },
        {
          "indexed": true,
          "internalType": "uint256",
          "name": "tokenId",
          "type": "uint256"
        }
      ],
      "name": "Approval",
      "type": "event"
    },
    {
      "anonymous": false,
      "inputs": [
        {
          "indexed": true,
          "internalType": "address",
          "name": "owner",
          "type": "address"
        },
        {
          "indexed": true,
          "internalType": "address",
          "name": "operator",
          "type": "address"
        },
        {
          "indexed": false,
          "internalType": "bool",
          "name": "approved",
          "type": "bool"
        }
      ],
      "name": "ApprovalForAll",
      "type": "event"
    },
    {
      "anonymous": false,
      "inputs": [
        {
          "indexed": true,
          "internalType": "address",
          "name": "_addr",
          "type": "address"
        },
        {
          "indexed": false,
          "internalType": "uint256",
          "name": "id",
          "type": "uint256"
        }
      ],
      "name": "Mint",
      "type": "event"
    },
    {
      "anonymous": false,
      "inputs": [
        {
          "indexed": true,
          "internalType": "address",
          "name": "previousOwner",
          "type": "address"
        },
        {
          "indexed": true,
          "internalType": "address",
          "name": "newOwner",
          "type": "address"
        }
      ],
      "name": "OwnershipTransferred",
      "type": "event"
    },
    {
      "anonymous": false,
      "inputs": [
        {
          "indexed": true,
          "internalType": "address",
          "name": "from",
          "type": "address"
        },
        {
          "indexed": true,
          "internalType": "address",
          "name": "to",
          "type": "address"
        },
        {
          "indexed": true,
          "internalType": "uint256",
          "name": "tokenId",
          "type": "uint256"
        }
      ],
      "name": "Transfer",
      "type": "event"
    },
    {
      "inputs": [],
      "name": "_orderID",
      "outputs": [
        {
          "internalType": "uint256",
          "name": "_value",
          "type": "uint256"
        }
      ],
      "stateMutability": "view",
      "type": "function"
    },
    {
      "inputs": [
        {
          "internalType": "address",
          "name": "to",
          "type": "address"
        },
        {
          "internalType": "uint256",
          "name": "tokenId",
          "type": "uint256"
        }
      ],
      "name": "approve",
      "outputs": [],
      "stateMutability": "nonpayable",
      "type": "function"
    },
    {
      "inputs": [
        {
          "internalType": "address",
          "name": "owner",
          "type": "address"
        }
      ],
      "name": "balanceOf",
      "outputs": [
        {
          "internalType": "uint256",
          "name": "",
          "type": "uint256"
        }
      ],
      "stateMutability": "view",
      "type": "function"
    },
    {
      "inputs": [],
      "name": "baseURI",
      "outputs": [
        {
          "internalType": "string",
          "name": "",
          "type": "string"
        }
      ],
      "stateMutability": "view",
      "type": "function"
    },
    {
      "inputs": [],
      "name": "currentTokenId",
      "outputs": [
        {
          "internalType": "uint256",
          "name": "",
          "type": "uint256"
        }
      ],
      "stateMutability": "view",
      "type": "function"
    },
    {
      "inputs": [
        {
          "internalType": "uint256",
          "name": "tokenId",
          "type": "uint256"
        }
      ],
      "name": "getApproved",
      "outputs": [
        {
          "internalType": "address",
          "name": "",
          "type": "address"
        }
      ],
      "stateMutability": "view",
      "type": "function"
    },
    {
      "inputs": [
        {
          "internalType": "address",
          "name": "owner",
          "type": "address"
        },
        {
          "internalType": "address",
          "name": "operator",
          "type": "address"
        }
      ],
      "name": "isApprovedForAll",
      "outputs": [
        {
          "internalType": "bool",
          "name": "",
          "type": "bool"
        }
      ],
      "stateMutability": "view",
      "type": "function"
    },
    {
      "inputs": [
        {
          "internalType": "address",
          "name": "_recipient",
          "type": "address"
        }
      ],
      "name": "mintTo",
      "outputs": [],
      "stateMutability": "nonpayable",
      "type": "function"
    },
    {
      "inputs": [],
      "name": "name",
      "outputs": [
        {
          "internalType": "string",
          "name": "",
          "type": "string"
        }
      ],
      "stateMutability": "view",
      "type": "function"
    },
    {
      "inputs": [],
      "name": "owner",
      "outputs": [
        {
          "internalType": "address",
          "name": "",
          "type": "address"
        }
      ],
      "stateMutability": "view",
      "type": "function"
    },
    {
      "inputs": [
        {
          "internalType": "uint256",
          "name": "tokenId",
          "type": "uint256"
        }
      ],
      "name": "ownerOf",
      "outputs": [
        {
          "internalType": "address",
          "name": "",
          "type": "address"
        }
      ],
      "stateMutability": "view",
      "type": "function"
    },
    {
      "inputs": [],
      "name": "renounceOwnership",
      "outputs": [],
      "stateMutability": "nonpayable",
      "type": "function"
    },
    {
      "inputs": [
        {
          "internalType": "address",
          "name": "from",
          "type": "address"
        },
        {
          "internalType": "address",
          "name": "to",
          "type": "address"
        },
        {
          "internalType": "uint256",
          "name": "tokenId",
          "type": "uint256"
        }
      ],
      "name": "safeTransferFrom",
      "outputs": [],
      "stateMutability": "nonpayable",
      "type": "function"
    },
    {
      "inputs": [
        {
          "internalType": "address",
          "name": "from",
          "type": "address"
        },
        {
          "internalType": "address",
          "name": "to",
          "type": "address"
        },
        {
          "internalType": "uint256",
          "name": "tokenId",
          "type": "uint256"
        },
        {
          "internalType": "bytes",
          "name": "data",
          "type": "bytes"
        }
      ],
      "name": "safeTransferFrom",
      "outputs": [],
      "stateMutability": "nonpayable",
      "type": "function"
    },
    {
      "inputs": [
        {
          "internalType": "address",
          "name": "operator",
          "type": "address"
        },
        {
          "internalType": "bool",
          "name": "approved",
          "type": "bool"
        }
      ],
      "name": "setApprovalForAll",
      "outputs": [],
      "stateMutability": "nonpayable",
      "type": "function"
    },
    {
      "inputs": [
        {
          "internalType": "address",
          "name": "_newStakingContract",
          "type": "address"
        }
      ],
      "name": "setStakingContract",
      "outputs": [],
      "stateMutability": "nonpayable",
      "type": "function"
    },
    {
      "inputs": [],
      "name": "stakingContract",
      "outputs": [
        {
          "internalType": "address",
          "name": "",
          "type": "address"
        }
      ],
      "stateMutability": "view",
      "type": "function"
    },
    {
      "inputs": [
        {
          "internalType": "bytes4",
          "name": "interfaceId",
          "type": "bytes4"
        }
      ],
      "name": "supportsInterface",
      "outputs": [
        {
          "internalType": "bool",
          "name": "",
          "type": "bool"
        }
      ],
      "stateMutability": "view",
      "type": "function"
    },
    {
      "inputs": [],
      "name": "symbol",
      "outputs": [
        {
          "internalType": "string",
          "name": "",
          "type": "string"
        }
      ],
      "stateMutability": "view",
      "type": "function"
    },
    {
      "inputs": [
        {
          "internalType": "uint256",
          "name": "_tokenId",
          "type": "uint256"
        }
      ],
      "name": "tokenURI",
      "outputs": [
        {
          "internalType": "string",
          "name": "",
          "type": "string"
        }
      ],
      "stateMutability": "view",
      "type": "function"
    },
    {
      "inputs": [
        {
          "internalType": "address",
          "name": "from",
          "type": "address"
        },
        {
          "internalType": "address",
          "name": "to",
          "type": "address"
        },
        {
          "internalType": "uint256",
          "name": "tokenId",
          "type": "uint256"
        }
      ],
      "name": "transferFrom",
      "outputs": [],
      "stateMutability": "nonpayable",
      "type": "function"
    },
    {
      "inputs": [
        {
          "internalType": "address",
          "name": "newOwner",
          "type": "address"
        }
      ],
      "name": "transferOwnership",
      "outputs": [],
      "stateMutability": "nonpayable",
      "type": "function"
    }
  ],
  "bytecode": {
    "object": "0x60806040523480156200001157600080fd5b5060405162001aab38038062001aab833981016040819052620000349162000268565b8251839083906200004d906000906020850190620000f5565b50805162000063906001906020840190620000f5565b505050620000806200007a6200009f60201b60201c565b620000a3565b805162000095906007906020840190620000f5565b5050505062000335565b3390565b600680546001600160a01b038381166001600160a01b0319831681179093556040519116919082907f8be0079c531659141344cd1fd0a4f28419497f9722a3daafe3b4186f6b6457e090600090a35050565b8280546200010390620002f9565b90600052602060002090601f01602090048101928262000127576000855562000172565b82601f106200014257805160ff191683800117855562000172565b8280016001018555821562000172579182015b828111156200017257825182559160200191906001019062000155565b506200018092915062000184565b5090565b5b8082111562000180576000815560010162000185565b634e487b7160e01b600052604160045260246000fd5b600082601f830112620001c357600080fd5b81516001600160401b0380821115620001e057620001e06200019b565b604051601f8301601f19908116603f011681019082821181831017156200020b576200020b6200019b565b816040528381526020925086838588010111156200022857600080fd5b600091505b838210156200024c57858201830151818301840152908201906200022d565b838211156200025e5760008385830101525b9695505050505050565b6000806000606084860312156200027e57600080fd5b83516001600160401b03808211156200029657600080fd5b620002a487838801620001b1565b94506020860151915080821115620002bb57600080fd5b620002c987838801620001b1565b93506040860151915080821115620002e057600080fd5b50620002ef86828701620001b1565b9150509250925092565b600181811c908216806200030e57607f821691505b6020821081036200032f57634e487b7160e01b600052602260045260246000fd5b50919050565b61176680620003456000396000f3fe608060405234801561001057600080fd5b50600436106101415760003560e01c8063715018a6116100b8578063a22cb4651161007c578063a22cb4651461027f578063b88d4fde14610292578063c87b56dd146102a5578063e985e9c5146102b8578063ee99205c146102f4578063f2fde38b1461030757600080fd5b8063715018a614610238578063755edd17146102405780638da5cb5b1461025357806395d89b41146102645780639dd373b91461026c57600080fd5b806323b872dd1161010a57806323b872dd146101da57806342842e0e146101ed5780635342389e146102005780636352211e1461020a5780636c0360eb1461021d57806370a082311461022557600080fd5b80629a9b7b1461014657806301ffc9a71461016257806306fdde0314610185578063081812fc1461019a578063095ea7b3146101c5575b600080fd5b61014f60085481565b6040519081526020015b60405180910390f35b610175610170366004611250565b61031a565b6040519015158152602001610159565b61018d61036c565b60405161015991906112cc565b6101ad6101a83660046112df565b6103fe565b6040516001600160a01b039091168152602001610159565b6101d86101d3366004611314565b610425565b005b6101d86101e836600461133e565b61053f565b6101d86101fb36600461133e565b610570565b60095461014f9081565b6101ad6102183660046112df565b61058b565b61018d6105eb565b61014f61023336600461137a565b610679565b6101d86106ff565b6101d861024e36600461137a565b610713565b6006546001600160a01b03166101ad565b61018d6107a6565b6101d861027a36600461137a565b6107b5565b6101d861028d366004611395565b610802565b6101d86102a03660046113e7565b610811565b61018d6102b33660046112df565b610849565b6101756102c63660046114c3565b6001600160a01b03918216600090815260056020908152604080832093909416825291909152205460ff1690565b600a546101ad906001600160a01b031681565b6101d861031536600461137a565b610920565b60006001600160e01b031982166380ac58cd60e01b148061034b57506001600160e01b03198216635b5e139f60e01b145b8061036657506301ffc9a760e01b6001600160e01b03198316145b92915050565b60606000805461037b906114f6565b80601f01602080910402602001604051908101604052809291908181526020018280546103a7906114f6565b80156103f45780601f106103c9576101008083540402835291602001916103f4565b820191906000526020600020905b8154815290600101906020018083116103d757829003601f168201915b5050505050905090565b600061040982610999565b506000908152600460205260409020546001600160a01b031690565b60006104308261058b565b9050806001600160a01b0316836001600160a01b0316036104a25760405162461bcd60e51b815260206004820152602160248201527f4552433732313a20617070726f76616c20746f2063757272656e74206f776e656044820152603960f91b60648201526084015b60405180910390fd5b336001600160a01b03821614806104be57506104be81336102c6565b6105305760405162461bcd60e51b815260206004820152603d60248201527f4552433732313a20617070726f76652063616c6c6572206973206e6f7420746f60448201527f6b656e206f776e6572206f7220617070726f76656420666f7220616c6c0000006064820152608401610499565b61053a83836109f8565b505050565b6105493382610a66565b6105655760405162461bcd60e51b815260040161049990611530565b61053a838383610ae5565b61053a83838360405180602001604052806000815250610811565b6000818152600260205260408120546001600160a01b0316806103665760405162461bcd60e51b8152602060048201526018602482015277115490cdcc8c4e881a5b9d985b1a59081d1bdad95b88125160421b6044820152606401610499565b600780546105f8906114f6565b80601f0160208091040260200160405190810160405280929190818152602001828054610624906114f6565b80156106715780601f1061064657610100808354040283529160200191610671565b820191906000526020600020905b81548152906001019060200180831161065457829003601f168201915b505050505081565b60006001600160a01b0382166106e35760405162461bcd60e51b815260206004820152602960248201527f4552433732313a2061646472657373207a65726f206973206e6f7420612076616044820152683634b21037bbb732b960b91b6064820152608401610499565b506001600160a01b031660009081526003602052604090205490565b610707610c49565b6107116000610ca3565b565b600a546001600160a01b0316331461073e57604051631134270960e21b815260040160405180910390fd5b61074c600980546001019055565b61075e8161075960095490565b610cf5565b806001600160a01b03167f0f6798a560793a54c3bcfe86a93cde1e73087d944c0ea20544137d412139688561079260095490565b60405190815260200160405180910390a250565b60606001805461037b906114f6565b600a546001600160a01b031633146107e057604051631134270960e21b815260040160405180910390fd5b600a80546001600160a01b0319166001600160a01b0392909216919091179055565b61080d338383610d0f565b5050565b61081b3383610a66565b6108375760405162461bcd60e51b815260040161049990611530565b61084384848484610ddd565b50505050565b606060006108568361058b565b6001600160a01b0316036108c45760405162461bcd60e51b815260206004820152602f60248201527f4552433732314d657461646174613a2055524920717565727920666f72206e6f60448201526e3732bc34b9ba32b73a103a37b5b2b760891b6064820152608401610499565b6000600780546108d3906114f6565b9050116108ef5760405180602001604052806000815250610366565b60076108fa83610e10565b60405160200161090b929190611599565b60405160208183030381529060405292915050565b610928610c49565b6001600160a01b03811661098d5760405162461bcd60e51b815260206004820152602660248201527f4f776e61626c653a206e6577206f776e657220697320746865207a65726f206160448201526564647265737360d01b6064820152608401610499565b61099681610ca3565b50565b6000818152600260205260409020546001600160a01b03166109965760405162461bcd60e51b8152602060048201526018602482015277115490cdcc8c4e881a5b9d985b1a59081d1bdad95b88125160421b6044820152606401610499565b600081815260046020526040902080546001600160a01b0319166001600160a01b0384169081179091558190610a2d8261058b565b6001600160a01b03167f8c5be1e5ebec7d5bd14f71427d1e84f3dd0314c0f7b2291e5b200ac8c7c3b92560405160405180910390a45050565b600080610a728361058b565b9050806001600160a01b0316846001600160a01b03161480610ab957506001600160a01b0380821660009081526005602090815260408083209388168352929052205460ff165b80610add5750836001600160a01b0316610ad2846103fe565b6001600160a01b0316145b949350505050565b826001600160a01b0316610af88261058b565b6001600160a01b031614610b1e5760405162461bcd60e51b81526004016104999061163f565b6001600160a01b038216610b805760405162461bcd60e51b8152602060048201526024808201527f4552433732313a207472616e7366657220746f20746865207a65726f206164646044820152637265737360e01b6064820152608401610499565b826001600160a01b0316610b938261058b565b6001600160a01b031614610bb95760405162461bcd60e51b81526004016104999061163f565b600081815260046020908152604080832080546001600160a01b03199081169091556001600160a01b0387811680865260038552838620805460001901905590871680865283862080546001019055868652600290945282852080549092168417909155905184937fddf252ad1be2c89b69c2b068fc378daa952ba7f163c4a11628f55a4df523b3ef91a4505050565b6006546001600160a01b031633146107115760405162461bcd60e51b815260206004820181905260248201527f4f776e61626c653a2063616c6c6572206973206e6f7420746865206f776e65726044820152606401610499565b600680546001600160a01b038381166001600160a01b0319831681179093556040519116919082907f8be0079c531659141344cd1fd0a4f28419497f9722a3daafe3b4186f6b6457e090600090a35050565b61080d828260405180602001604052806000815250610ea3565b816001600160a01b0316836001600160a01b031603610d705760405162461bcd60e51b815260206004820152601960248201527f4552433732313a20617070726f766520746f2063616c6c6572000000000000006044820152606401610499565b6001600160a01b03838116600081815260056020908152604080832094871680845294825291829020805460ff191686151590811790915591519182527f17307eab39ab6107e8899845ad3d59bd9653f200f220920489ca2b5937696c31910160405180910390a3505050565b610de8848484610ae5565b610df484848484610ed6565b6108435760405162461bcd60e51b815260040161049990611684565b60606000610e1d83610fd7565b600101905060008167ffffffffffffffff811115610e3d57610e3d6113d1565b6040519080825280601f01601f191660200182016040528015610e67576020820181803683370190505b5090508181016020015b600019016f181899199a1a9b1b9c1cb0b131b232b360811b600a86061a8153600a8504945084610e7157509392505050565b610ead83836110af565b610eba6000848484610ed6565b61053a5760405162461bcd60e51b815260040161049990611684565b60006001600160a01b0384163b15610fcc57604051630a85bd0160e11b81526001600160a01b0385169063150b7a0290610f1a9033908990889088906004016116d6565b6020604051808303816000875af1925050508015610f55575060408051601f3d908101601f19168201909252610f5291810190611713565b60015b610fb2573d808015610f83576040519150601f19603f3d011682016040523d82523d6000602084013e610f88565b606091505b508051600003610faa5760405162461bcd60e51b815260040161049990611684565b805181602001fd5b6001600160e01b031916630a85bd0160e11b149050610add565b506001949350505050565b60008072184f03e93ff9f4daa797ed6e38ed64bf6a1f0160401b83106110165772184f03e93ff9f4daa797ed6e38ed64bf6a1f0160401b830492506040015b6d04ee2d6d415b85acef81000000008310611042576d04ee2d6d415b85acef8100000000830492506020015b662386f26fc10000831061106057662386f26fc10000830492506010015b6305f5e1008310611078576305f5e100830492506008015b612710831061108c57612710830492506004015b6064831061109e576064830492506002015b600a83106103665760010192915050565b6001600160a01b0382166111055760405162461bcd60e51b815260206004820181905260248201527f4552433732313a206d696e7420746f20746865207a65726f20616464726573736044820152606401610499565b6000818152600260205260409020546001600160a01b03161561116a5760405162461bcd60e51b815260206004820152601c60248201527f4552433732313a20746f6b656e20616c7265616479206d696e746564000000006044820152606401610499565b6000818152600260205260409020546001600160a01b0316156111cf5760405162461bcd60e51b815260206004820152601c60248201527f4552433732313a20746f6b656e20616c7265616479206d696e746564000000006044820152606401610499565b6001600160a01b038216600081815260036020908152604080832080546001019055848352600290915280822080546001600160a01b0319168417905551839291907fddf252ad1be2c89b69c2b068fc378daa952ba7f163c4a11628f55a4df523b3ef908290a45050565b6001600160e01b03198116811461099657600080fd5b60006020828403121561126257600080fd5b813561126d8161123a565b9392505050565b60005b8381101561128f578181015183820152602001611277565b838111156108435750506000910152565b600081518084526112b8816020860160208601611274565b601f01601f19169290920160200192915050565b60208152600061126d60208301846112a0565b6000602082840312156112f157600080fd5b5035919050565b80356001600160a01b038116811461130f57600080fd5b919050565b6000806040838503121561132757600080fd5b611330836112f8565b946020939093013593505050565b60008060006060848603121561135357600080fd5b61135c846112f8565b925061136a602085016112f8565b9150604084013590509250925092565b60006020828403121561138c57600080fd5b61126d826112f8565b600080604083850312156113a857600080fd5b6113b1836112f8565b9150602083013580151581146113c657600080fd5b809150509250929050565b634e487b7160e01b600052604160045260246000fd5b600080600080608085870312156113fd57600080fd5b611406856112f8565b9350611414602086016112f8565b925060408501359150606085013567ffffffffffffffff8082111561143857600080fd5b818701915087601f83011261144c57600080fd5b81358181111561145e5761145e6113d1565b604051601f8201601f19908116603f01168101908382118183101715611486576114866113d1565b816040528281528a602084870101111561149f57600080fd5b82602086016020830137600060208483010152809550505050505092959194509250565b600080604083850312156114d657600080fd5b6114df836112f8565b91506114ed602084016112f8565b90509250929050565b600181811c9082168061150a57607f821691505b60208210810361152a57634e487b7160e01b600052602260045260246000fd5b50919050565b6020808252602d908201527f4552433732313a2063616c6c6572206973206e6f7420746f6b656e206f776e6560408201526c1c881bdc88185c1c1c9bdd9959609a1b606082015260800190565b6000815161158f818560208601611274565b9290920192915050565b600080845481600182811c9150808316806115b557607f831692505b602080841082036115d457634e487b7160e01b86526022600452602486fd5b8180156115e857600181146115f957611626565b60ff19861689528489019650611626565b60008b81526020902060005b8681101561161e5781548b820152908501908301611605565b505084890196505b505050505050611636818561157d565b95945050505050565b60208082526025908201527f4552433732313a207472616e736665722066726f6d20696e636f72726563742060408201526437bbb732b960d91b606082015260800190565b60208082526032908201527f4552433732313a207472616e7366657220746f206e6f6e20455243373231526560408201527131b2b4bb32b91034b6b83632b6b2b73a32b960711b606082015260800190565b6001600160a01b0385811682528416602082015260408101839052608060608201819052600090611709908301846112a0565b9695505050505050565b60006020828403121561172557600080fd5b815161126d8161123a56fea26469706673582212201ce320bcc0ab199bb4361e3f3163b4ef7e1e466ac4a9ce4dedaedc9fe5b7143f64736f6c634300080d0033",
    "linkReferences": {}
  },
  "methodIdentifiers": {
    "_orderID()": "5342389e",
    "approve(address,uint256)": "095ea7b3",
    "balanceOf(address)": "70a08231",
    "baseURI()": "6c0360eb",
    "currentTokenId()": "009a9b7b",
    "getApproved(uint256)": "081812fc",
    "isApprovedForAll(address,address)": "e985e9c5",
    "mintTo(address)": "755edd17",
    "name()": "06fdde03",
    "owner()": "8da5cb5b",
    "ownerOf(uint256)": "6352211e",
    "renounceOwnership()": "715018a6",
    "safeTransferFrom(address,address,uint256)": "42842e0e",
    "safeTransferFrom(address,address,uint256,bytes)": "b88d4fde",
    "setApprovalForAll(address,bool)": "a22cb465",
    "setStakingContract(address)": "9dd373b9",
    "stakingContract()": "ee99205c",
    "supportsInterface(bytes4)": "01ffc9a7",
    "symbol()": "95d89b41",
    "tokenURI(uint256)": "c87b56dd",
    "transferFrom(address,address,uint256)": "23b872dd",
    "transferOwnership(address)": "f2fde38b"
  },
  "id": 35
}