{
  "abi": [
    {
      "inputs": [
        {
          "internalType": "string",
          "name": "_name",
          "type": "string"
        },
        {
          "internalType": "string",
          "name": "_symbol",
          "type": "string"
        },
        {
          "internalType": "string",
          "name": "_baseURI",
          "type": "string"
        }
      ],
      "stateMutability": "nonpayable",
      "type": "constructor"
    },
    {
      "inputs": [],
      "name": "OverlayNFT_OnlyStakingContract",
      "type": "error"
    },
    {
      "anonymous": false,
      "inputs": [
        {
          "indexed": true,
          "internalType": "address",
          "name": "owner",
          "type": "address"
        },
        {
          "indexed": true,
          "internalType": "address",
          "name": "approved",
          "type": "address"
        },
        {
          "indexed": true,
          "internalType": "uint256",
          "name": "tokenId",
          "type": "uint256"
        }
      ],
      "name": "Approval",
      "type": "event"
    },
    {
      "anonymous": false,
      "inputs": [
        {
          "indexed": true,
          "internalType": "address",
          "name": "owner",
          "type": "address"
        },
        {
          "indexed": true,
          "internalType": "address",
          "name": "operator",
          "type": "address"
        },
        {
          "indexed": false,
          "internalType": "bool",
          "name": "approved",
          "type": "bool"
        }
      ],
      "name": "ApprovalForAll",
      "type": "event"
    },
    {
      "anonymous": false,
      "inputs": [
        {
          "indexed": true,
          "internalType": "address",
          "name": "previousOwner",
          "type": "address"
        },
        {
          "indexed": true,
          "internalType": "address",
          "name": "newOwner",
          "type": "address"
        }
      ],
      "name": "OwnershipTransferred",
      "type": "event"
    },
    {
      "anonymous": false,
      "inputs": [
        {
          "indexed": true,
          "internalType": "address",
          "name": "from",
          "type": "address"
        },
        {
          "indexed": true,
          "internalType": "address",
          "name": "to",
          "type": "address"
        },
        {
          "indexed": true,
          "internalType": "uint256",
          "name": "tokenId",
          "type": "uint256"
        }
      ],
      "name": "Transfer",
      "type": "event"
    },
    {
      "inputs": [
        {
          "internalType": "address",
          "name": "to",
          "type": "address"
        },
        {
          "internalType": "uint256",
          "name": "tokenId",
          "type": "uint256"
        }
      ],
      "name": "approve",
      "outputs": [],
      "stateMutability": "nonpayable",
      "type": "function"
    },
    {
      "inputs": [
        {
          "internalType": "address",
          "name": "owner",
          "type": "address"
        }
      ],
      "name": "balanceOf",
      "outputs": [
        {
          "internalType": "uint256",
          "name": "",
          "type": "uint256"
        }
      ],
      "stateMutability": "view",
      "type": "function"
    },
    {
      "inputs": [],
      "name": "baseURI",
      "outputs": [
        {
          "internalType": "string",
          "name": "",
          "type": "string"
        }
      ],
      "stateMutability": "view",
      "type": "function"
    },
    {
      "inputs": [],
      "name": "currentTokenId",
      "outputs": [
        {
          "internalType": "uint256",
          "name": "",
          "type": "uint256"
        }
      ],
      "stateMutability": "view",
      "type": "function"
    },
    {
      "inputs": [
        {
          "internalType": "uint256",
          "name": "tokenId",
          "type": "uint256"
        }
      ],
      "name": "getApproved",
      "outputs": [
        {
          "internalType": "address",
          "name": "",
          "type": "address"
        }
      ],
      "stateMutability": "view",
      "type": "function"
    },
    {
      "inputs": [
        {
          "internalType": "address",
          "name": "owner",
          "type": "address"
        },
        {
          "internalType": "address",
          "name": "operator",
          "type": "address"
        }
      ],
      "name": "isApprovedForAll",
      "outputs": [
        {
          "internalType": "bool",
          "name": "",
          "type": "bool"
        }
      ],
      "stateMutability": "view",
      "type": "function"
    },
    {
      "inputs": [
        {
          "internalType": "address",
          "name": "_recipient",
          "type": "address"
        }
      ],
      "name": "mintTo",
      "outputs": [
        {
          "internalType": "uint256",
          "name": "",
          "type": "uint256"
        }
      ],
      "stateMutability": "nonpayable",
      "type": "function"
    },
    {
      "inputs": [],
      "name": "name",
      "outputs": [
        {
          "internalType": "string",
          "name": "",
          "type": "string"
        }
      ],
      "stateMutability": "view",
      "type": "function"
    },
    {
      "inputs": [],
      "name": "owner",
      "outputs": [
        {
          "internalType": "address",
          "name": "",
          "type": "address"
        }
      ],
      "stateMutability": "view",
      "type": "function"
    },
    {
      "inputs": [
        {
          "internalType": "uint256",
          "name": "tokenId",
          "type": "uint256"
        }
      ],
      "name": "ownerOf",
      "outputs": [
        {
          "internalType": "address",
          "name": "",
          "type": "address"
        }
      ],
      "stateMutability": "view",
      "type": "function"
    },
    {
      "inputs": [],
      "name": "renounceOwnership",
      "outputs": [],
      "stateMutability": "nonpayable",
      "type": "function"
    },
    {
      "inputs": [
        {
          "internalType": "address",
          "name": "from",
          "type": "address"
        },
        {
          "internalType": "address",
          "name": "to",
          "type": "address"
        },
        {
          "internalType": "uint256",
          "name": "tokenId",
          "type": "uint256"
        }
      ],
      "name": "safeTransferFrom",
      "outputs": [],
      "stateMutability": "nonpayable",
      "type": "function"
    },
    {
      "inputs": [
        {
          "internalType": "address",
          "name": "from",
          "type": "address"
        },
        {
          "internalType": "address",
          "name": "to",
          "type": "address"
        },
        {
          "internalType": "uint256",
          "name": "tokenId",
          "type": "uint256"
        },
        {
          "internalType": "bytes",
          "name": "data",
          "type": "bytes"
        }
      ],
      "name": "safeTransferFrom",
      "outputs": [],
      "stateMutability": "nonpayable",
      "type": "function"
    },
    {
      "inputs": [
        {
          "internalType": "address",
          "name": "operator",
          "type": "address"
        },
        {
          "internalType": "bool",
          "name": "approved",
          "type": "bool"
        }
      ],
      "name": "setApprovalForAll",
      "outputs": [],
      "stateMutability": "nonpayable",
      "type": "function"
    },
    {
      "inputs": [
        {
          "internalType": "address",
          "name": "_newStakingContract",
          "type": "address"
        }
      ],
      "name": "setStakingContract",
      "outputs": [],
      "stateMutability": "nonpayable",
      "type": "function"
    },
    {
      "inputs": [],
      "name": "stakingContract",
      "outputs": [
        {
          "internalType": "address",
          "name": "",
          "type": "address"
        }
      ],
      "stateMutability": "view",
      "type": "function"
    },
    {
      "inputs": [
        {
          "internalType": "bytes4",
          "name": "interfaceId",
          "type": "bytes4"
        }
      ],
      "name": "supportsInterface",
      "outputs": [
        {
          "internalType": "bool",
          "name": "",
          "type": "bool"
        }
      ],
      "stateMutability": "view",
      "type": "function"
    },
    {
      "inputs": [],
      "name": "symbol",
      "outputs": [
        {
          "internalType": "string",
          "name": "",
          "type": "string"
        }
      ],
      "stateMutability": "view",
      "type": "function"
    },
    {
      "inputs": [
        {
          "internalType": "uint256",
          "name": "_tokenId",
          "type": "uint256"
        }
      ],
      "name": "tokenURI",
      "outputs": [
        {
          "internalType": "string",
          "name": "",
          "type": "string"
        }
      ],
      "stateMutability": "view",
      "type": "function"
    },
    {
      "inputs": [
        {
          "internalType": "address",
          "name": "from",
          "type": "address"
        },
        {
          "internalType": "address",
          "name": "to",
          "type": "address"
        },
        {
          "internalType": "uint256",
          "name": "tokenId",
          "type": "uint256"
        }
      ],
      "name": "transferFrom",
      "outputs": [],
      "stateMutability": "nonpayable",
      "type": "function"
    },
    {
      "inputs": [
        {
          "internalType": "address",
          "name": "newOwner",
          "type": "address"
        }
      ],
      "name": "transferOwnership",
      "outputs": [],
      "stateMutability": "nonpayable",
      "type": "function"
    }
  ],
  "bytecode": {
    "object": "0x60806040523480156200001157600080fd5b5060405162001a7a38038062001a7a833981016040819052620000349162000268565b8251839083906200004d906000906020850190620000f5565b50805162000063906001906020840190620000f5565b505050620000806200007a6200009f60201b60201c565b620000a3565b805162000095906007906020840190620000f5565b5050505062000335565b3390565b600680546001600160a01b038381166001600160a01b0319831681179093556040519116919082907f8be0079c531659141344cd1fd0a4f28419497f9722a3daafe3b4186f6b6457e090600090a35050565b8280546200010390620002f9565b90600052602060002090601f01602090048101928262000127576000855562000172565b82601f106200014257805160ff191683800117855562000172565b8280016001018555821562000172579182015b828111156200017257825182559160200191906001019062000155565b506200018092915062000184565b5090565b5b8082111562000180576000815560010162000185565b634e487b7160e01b600052604160045260246000fd5b600082601f830112620001c357600080fd5b81516001600160401b0380821115620001e057620001e06200019b565b604051601f8301601f19908116603f011681019082821181831017156200020b576200020b6200019b565b816040528381526020925086838588010111156200022857600080fd5b600091505b838210156200024c57858201830151818301840152908201906200022d565b838211156200025e5760008385830101525b9695505050505050565b6000806000606084860312156200027e57600080fd5b83516001600160401b03808211156200029657600080fd5b620002a487838801620001b1565b94506020860151915080821115620002bb57600080fd5b620002c987838801620001b1565b93506040860151915080821115620002e057600080fd5b50620002ef86828701620001b1565b9150509250925092565b600181811c908216806200030e57607f821691505b6020821081036200032f57634e487b7160e01b600052602260045260246000fd5b50919050565b61173580620003456000396000f3fe608060405234801561001057600080fd5b50600436106101365760003560e01c8063715018a6116100b8578063a22cb4651161007c578063a22cb4651461026a578063b88d4fde1461027d578063c87b56dd14610290578063e985e9c5146102a3578063ee99205c146102df578063f2fde38b146102f257600080fd5b8063715018a614610223578063755edd171461022b5780638da5cb5b1461023e57806395d89b411461024f5780639dd373b91461025757600080fd5b806323b872dd116100ff57806323b872dd146101cf57806342842e0e146101e25780636352211e146101f55780636c0360eb1461020857806370a082311461021057600080fd5b80629a9b7b1461013b57806301ffc9a71461015757806306fdde031461017a578063081812fc1461018f578063095ea7b3146101ba575b600080fd5b61014460085481565b6040519081526020015b60405180910390f35b61016a6101653660046111fd565b610305565b604051901515815260200161014e565b610182610357565b60405161014e9190611279565b6101a261019d36600461128c565b6103e9565b6040516001600160a01b03909116815260200161014e565b6101cd6101c83660046112bc565b610410565b005b6101cd6101dd3660046112e6565b61052a565b6101cd6101f03660046112e6565b61055b565b6101a261020336600461128c565b610576565b6101826105d6565b61014461021e366004611322565b610664565b6101cd6106ea565b610144610239366004611322565b6106fe565b6006546001600160a01b03166101a2565b610182610753565b6101cd610265366004611322565b610762565b6101cd61027836600461133d565b6107af565b6101cd61028b36600461138f565b6107be565b61018261029e36600461128c565b6107f6565b61016a6102b136600461146b565b6001600160a01b03918216600090815260056020908152604080832093909416825291909152205460ff1690565b6009546101a2906001600160a01b031681565b6101cd610300366004611322565b6108cd565b60006001600160e01b031982166380ac58cd60e01b148061033657506001600160e01b03198216635b5e139f60e01b145b8061035157506301ffc9a760e01b6001600160e01b03198316145b92915050565b6060600080546103669061149e565b80601f01602080910402602001604051908101604052809291908181526020018280546103929061149e565b80156103df5780601f106103b4576101008083540402835291602001916103df565b820191906000526020600020905b8154815290600101906020018083116103c257829003601f168201915b5050505050905090565b60006103f482610946565b506000908152600460205260409020546001600160a01b031690565b600061041b82610576565b9050806001600160a01b0316836001600160a01b03160361048d5760405162461bcd60e51b815260206004820152602160248201527f4552433732313a20617070726f76616c20746f2063757272656e74206f776e656044820152603960f91b60648201526084015b60405180910390fd5b336001600160a01b03821614806104a957506104a981336102b1565b61051b5760405162461bcd60e51b815260206004820152603d60248201527f4552433732313a20617070726f76652063616c6c6572206973206e6f7420746f60448201527f6b656e206f776e6572206f7220617070726f76656420666f7220616c6c0000006064820152608401610484565b61052583836109a5565b505050565b6105343382610a13565b6105505760405162461bcd60e51b8152600401610484906114d8565b610525838383610a92565b610525838383604051806020016040528060008152506107be565b6000818152600260205260408120546001600160a01b0316806103515760405162461bcd60e51b8152602060048201526018602482015277115490cdcc8c4e881a5b9d985b1a59081d1bdad95b88125160421b6044820152606401610484565b600780546105e39061149e565b80601f016020809104026020016040519081016040528092919081815260200182805461060f9061149e565b801561065c5780601f106106315761010080835404028352916020019161065c565b820191906000526020600020905b81548152906001019060200180831161063f57829003601f168201915b505050505081565b60006001600160a01b0382166106ce5760405162461bcd60e51b815260206004820152602960248201527f4552433732313a2061646472657373207a65726f206973206e6f7420612076616044820152683634b21037bbb732b960b91b6064820152608401610484565b506001600160a01b031660009081526003602052604090205490565b6106f2610bf6565b6106fc6000610c50565b565b6009546000906001600160a01b0316331461072c57604051631134270960e21b815260040160405180910390fd5b600060086000815461073d90611525565b918290555090506103518382610ca2565b919050565b6060600180546103669061149e565b6009546001600160a01b0316331461078d57604051631134270960e21b815260040160405180910390fd5b600980546001600160a01b0319166001600160a01b0392909216919091179055565b6107ba338383610cbc565b5050565b6107c83383610a13565b6107e45760405162461bcd60e51b8152600401610484906114d8565b6107f084848484610d8a565b50505050565b6060600061080383610576565b6001600160a01b0316036108715760405162461bcd60e51b815260206004820152602f60248201527f4552433732314d657461646174613a2055524920717565727920666f72206e6f60448201526e3732bc34b9ba32b73a103a37b5b2b760891b6064820152608401610484565b6000600780546108809061149e565b90501161089c5760405180602001604052806000815250610351565b60076108a783610dbd565b6040516020016108b8929190611568565b60405160208183030381529060405292915050565b6108d5610bf6565b6001600160a01b03811661093a5760405162461bcd60e51b815260206004820152602660248201527f4f776e61626c653a206e6577206f776e657220697320746865207a65726f206160448201526564647265737360d01b6064820152608401610484565b61094381610c50565b50565b6000818152600260205260409020546001600160a01b03166109435760405162461bcd60e51b8152602060048201526018602482015277115490cdcc8c4e881a5b9d985b1a59081d1bdad95b88125160421b6044820152606401610484565b600081815260046020526040902080546001600160a01b0319166001600160a01b03841690811790915581906109da82610576565b6001600160a01b03167f8c5be1e5ebec7d5bd14f71427d1e84f3dd0314c0f7b2291e5b200ac8c7c3b92560405160405180910390a45050565b600080610a1f83610576565b9050806001600160a01b0316846001600160a01b03161480610a6657506001600160a01b0380821660009081526005602090815260408083209388168352929052205460ff165b80610a8a5750836001600160a01b0316610a7f846103e9565b6001600160a01b0316145b949350505050565b826001600160a01b0316610aa582610576565b6001600160a01b031614610acb5760405162461bcd60e51b81526004016104849061160e565b6001600160a01b038216610b2d5760405162461bcd60e51b8152602060048201526024808201527f4552433732313a207472616e7366657220746f20746865207a65726f206164646044820152637265737360e01b6064820152608401610484565b826001600160a01b0316610b4082610576565b6001600160a01b031614610b665760405162461bcd60e51b81526004016104849061160e565b600081815260046020908152604080832080546001600160a01b03199081169091556001600160a01b0387811680865260038552838620805460001901905590871680865283862080546001019055868652600290945282852080549092168417909155905184937fddf252ad1be2c89b69c2b068fc378daa952ba7f163c4a11628f55a4df523b3ef91a4505050565b6006546001600160a01b031633146106fc5760405162461bcd60e51b815260206004820181905260248201527f4f776e61626c653a2063616c6c6572206973206e6f7420746865206f776e65726044820152606401610484565b600680546001600160a01b038381166001600160a01b0319831681179093556040519116919082907f8be0079c531659141344cd1fd0a4f28419497f9722a3daafe3b4186f6b6457e090600090a35050565b6107ba828260405180602001604052806000815250610e50565b816001600160a01b0316836001600160a01b031603610d1d5760405162461bcd60e51b815260206004820152601960248201527f4552433732313a20617070726f766520746f2063616c6c6572000000000000006044820152606401610484565b6001600160a01b03838116600081815260056020908152604080832094871680845294825291829020805460ff191686151590811790915591519182527f17307eab39ab6107e8899845ad3d59bd9653f200f220920489ca2b5937696c31910160405180910390a3505050565b610d95848484610a92565b610da184848484610e83565b6107f05760405162461bcd60e51b815260040161048490611653565b60606000610dca83610f84565b600101905060008167ffffffffffffffff811115610dea57610dea611379565b6040519080825280601f01601f191660200182016040528015610e14576020820181803683370190505b5090508181016020015b600019016f181899199a1a9b1b9c1cb0b131b232b360811b600a86061a8153600a8504945084610e1e57509392505050565b610e5a838361105c565b610e676000848484610e83565b6105255760405162461bcd60e51b815260040161048490611653565b60006001600160a01b0384163b15610f7957604051630a85bd0160e11b81526001600160a01b0385169063150b7a0290610ec79033908990889088906004016116a5565b6020604051808303816000875af1925050508015610f02575060408051601f3d908101601f19168201909252610eff918101906116e2565b60015b610f5f573d808015610f30576040519150601f19603f3d011682016040523d82523d6000602084013e610f35565b606091505b508051600003610f575760405162461bcd60e51b815260040161048490611653565b805181602001fd5b6001600160e01b031916630a85bd0160e11b149050610a8a565b506001949350505050565b60008072184f03e93ff9f4daa797ed6e38ed64bf6a1f0160401b8310610fc35772184f03e93ff9f4daa797ed6e38ed64bf6a1f0160401b830492506040015b6d04ee2d6d415b85acef81000000008310610fef576d04ee2d6d415b85acef8100000000830492506020015b662386f26fc10000831061100d57662386f26fc10000830492506010015b6305f5e1008310611025576305f5e100830492506008015b612710831061103957612710830492506004015b6064831061104b576064830492506002015b600a83106103515760010192915050565b6001600160a01b0382166110b25760405162461bcd60e51b815260206004820181905260248201527f4552433732313a206d696e7420746f20746865207a65726f20616464726573736044820152606401610484565b6000818152600260205260409020546001600160a01b0316156111175760405162461bcd60e51b815260206004820152601c60248201527f4552433732313a20746f6b656e20616c7265616479206d696e746564000000006044820152606401610484565b6000818152600260205260409020546001600160a01b03161561117c5760405162461bcd60e51b815260206004820152601c60248201527f4552433732313a20746f6b656e20616c7265616479206d696e746564000000006044820152606401610484565b6001600160a01b038216600081815260036020908152604080832080546001019055848352600290915280822080546001600160a01b0319168417905551839291907fddf252ad1be2c89b69c2b068fc378daa952ba7f163c4a11628f55a4df523b3ef908290a45050565b6001600160e01b03198116811461094357600080fd5b60006020828403121561120f57600080fd5b813561121a816111e7565b9392505050565b60005b8381101561123c578181015183820152602001611224565b838111156107f05750506000910152565b60008151808452611265816020860160208601611221565b601f01601f19169290920160200192915050565b60208152600061121a602083018461124d565b60006020828403121561129e57600080fd5b5035919050565b80356001600160a01b038116811461074e57600080fd5b600080604083850312156112cf57600080fd5b6112d8836112a5565b946020939093013593505050565b6000806000606084860312156112fb57600080fd5b611304846112a5565b9250611312602085016112a5565b9150604084013590509250925092565b60006020828403121561133457600080fd5b61121a826112a5565b6000806040838503121561135057600080fd5b611359836112a5565b91506020830135801515811461136e57600080fd5b809150509250929050565b634e487b7160e01b600052604160045260246000fd5b600080600080608085870312156113a557600080fd5b6113ae856112a5565b93506113bc602086016112a5565b925060408501359150606085013567ffffffffffffffff808211156113e057600080fd5b818701915087601f8301126113f457600080fd5b81358181111561140657611406611379565b604051601f8201601f19908116603f0116810190838211818310171561142e5761142e611379565b816040528281528a602084870101111561144757600080fd5b82602086016020830137600060208483010152809550505050505092959194509250565b6000806040838503121561147e57600080fd5b611487836112a5565b9150611495602084016112a5565b90509250929050565b600181811c908216806114b257607f821691505b6020821081036114d257634e487b7160e01b600052602260045260246000fd5b50919050565b6020808252602d908201527f4552433732313a2063616c6c6572206973206e6f7420746f6b656e206f776e6560408201526c1c881bdc88185c1c1c9bdd9959609a1b606082015260800190565b60006001820161154557634e487b7160e01b600052601160045260246000fd5b5060010190565b6000815161155e818560208601611221565b9290920192915050565b600080845481600182811c91508083168061158457607f831692505b602080841082036115a357634e487b7160e01b86526022600452602486fd5b8180156115b757600181146115c8576115f5565b60ff198616895284890196506115f5565b60008b81526020902060005b868110156115ed5781548b8201529085019083016115d4565b505084890196505b505050505050611605818561154c565b95945050505050565b60208082526025908201527f4552433732313a207472616e736665722066726f6d20696e636f72726563742060408201526437bbb732b960d91b606082015260800190565b60208082526032908201527f4552433732313a207472616e7366657220746f206e6f6e20455243373231526560408201527131b2b4bb32b91034b6b83632b6b2b73a32b960711b606082015260800190565b6001600160a01b03858116825284166020820152604081018390526080606082018190526000906116d89083018461124d565b9695505050505050565b6000602082840312156116f457600080fd5b815161121a816111e756fea2646970667358221220ae36bd17b0ee72bed7650946cf9e172d87da95421ad150dea3729fa3ab37b33964736f6c634300080d0033",
    "linkReferences": {}
  },
  "methodIdentifiers": {
    "approve(address,uint256)": "095ea7b3",
    "balanceOf(address)": "70a08231",
    "baseURI()": "6c0360eb",
    "currentTokenId()": "009a9b7b",
    "getApproved(uint256)": "081812fc",
    "isApprovedForAll(address,address)": "e985e9c5",
    "mintTo(address)": "755edd17",
    "name()": "06fdde03",
    "owner()": "8da5cb5b",
    "ownerOf(uint256)": "6352211e",
    "renounceOwnership()": "715018a6",
    "safeTransferFrom(address,address,uint256)": "42842e0e",
    "safeTransferFrom(address,address,uint256,bytes)": "b88d4fde",
    "setApprovalForAll(address,bool)": "a22cb465",
    "setStakingContract(address)": "9dd373b9",
    "stakingContract()": "ee99205c",
    "supportsInterface(bytes4)": "01ffc9a7",
    "symbol()": "95d89b41",
    "tokenURI(uint256)": "c87b56dd",
    "transferFrom(address,address,uint256)": "23b872dd",
    "transferOwnership(address)": "f2fde38b"
  },
  "id": 29
}