{
  "abi": [
    {
      "inputs": [
        {
          "internalType": "address",
          "name": "_tokenAddress",
          "type": "address"
        },
        {
          "internalType": "address",
          "name": "_nftAddress",
          "type": "address"
        }
      ],
      "stateMutability": "nonpayable",
      "type": "constructor"
    },
    {
      "inputs": [],
      "name": "LockUp_AmountShouldBeGreaterThanZero",
      "type": "error"
    },
    {
      "inputs": [],
      "name": "LockUp_DepositDeadlineNotSet",
      "type": "error"
    },
    {
      "inputs": [],
      "name": "LockUp_DepositDeadlineReached",
      "type": "error"
    },
    {
      "inputs": [],
      "name": "LockUp_Invalid_Index",
      "type": "error"
    },
    {
      "inputs": [],
      "name": "LockUp_LockDurationShouldBeGreaterThanZero",
      "type": "error"
    },
    {
      "inputs": [],
      "name": "LockUp_PreviousDeadlineNotEnded",
      "type": "error"
    },
    {
      "inputs": [],
      "name": "LockUp_TokensAlreadyWithdrawn",
      "type": "error"
    },
    {
      "inputs": [],
      "name": "LockUp_TokensAreStillLocked",
      "type": "error"
    },
    {
      "anonymous": false,
      "inputs": [
        {
          "indexed": true,
          "internalType": "address",
          "name": "_addr",
          "type": "address"
        },
        {
          "indexed": false,
          "internalType": "uint256",
          "name": "timestamp",
          "type": "uint256"
        },
        {
          "indexed": false,
          "internalType": "uint256",
          "name": "amount",
          "type": "uint256"
        }
      ],
      "name": "Deposit",
      "type": "event"
    },
    {
      "anonymous": false,
      "inputs": [
        {
          "indexed": true,
          "internalType": "address",
          "name": "previousOwner",
          "type": "address"
        },
        {
          "indexed": true,
          "internalType": "address",
          "name": "newOwner",
          "type": "address"
        }
      ],
      "name": "OwnershipTransferred",
      "type": "event"
    },
    {
      "anonymous": false,
      "inputs": [
        {
          "indexed": false,
          "internalType": "address",
          "name": "account",
          "type": "address"
        }
      ],
      "name": "Paused",
      "type": "event"
    },
    {
      "anonymous": false,
      "inputs": [
        {
          "indexed": false,
          "internalType": "address",
          "name": "account",
          "type": "address"
        }
      ],
      "name": "Unpaused",
      "type": "event"
    },
    {
      "anonymous": false,
      "inputs": [
        {
          "indexed": true,
          "internalType": "address",
          "name": "_addr",
          "type": "address"
        },
        {
          "indexed": false,
          "internalType": "uint256",
          "name": "timestamp",
          "type": "uint256"
        },
        {
          "indexed": false,
          "internalType": "uint256",
          "name": "amount",
          "type": "uint256"
        }
      ],
      "name": "Withdrawal",
      "type": "event"
    },
    {
      "inputs": [
        {
          "internalType": "uint256",
          "name": "_amount",
          "type": "uint256"
        },
        {
          "internalType": "uint256",
          "name": "_lockDuration",
          "type": "uint256"
        }
      ],
      "name": "deposit",
      "outputs": [],
      "stateMutability": "nonpayable",
      "type": "function"
    },
    {
      "inputs": [],
      "name": "depositDeadline",
      "outputs": [
        {
          "internalType": "uint256",
          "name": "",
          "type": "uint256"
        }
      ],
      "stateMutability": "view",
      "type": "function"
    },
    {
      "inputs": [],
      "name": "getUserLockedBatchTokenCount",
      "outputs": [
        {
          "internalType": "uint256",
          "name": "",
          "type": "uint256"
        }
      ],
      "stateMutability": "view",
      "type": "function"
    },
    {
      "inputs": [
        {
          "internalType": "address",
          "name": "",
          "type": "address"
        },
        {
          "internalType": "uint256",
          "name": "",
          "type": "uint256"
        }
      ],
      "name": "locks",
      "outputs": [
        {
          "internalType": "uint256",
          "name": "amount",
          "type": "uint256"
        },
        {
          "internalType": "uint256",
          "name": "lockDuration",
          "type": "uint256"
        },
        {
          "internalType": "uint256",
          "name": "lockStart",
          "type": "uint256"
        },
        {
          "internalType": "bool",
          "name": "withdrawn",
          "type": "bool"
        }
      ],
      "stateMutability": "view",
      "type": "function"
    },
    {
      "inputs": [],
      "name": "nftContract",
      "outputs": [
        {
          "internalType": "contract IOverlayNFT",
          "name": "",
          "type": "address"
        }
      ],
      "stateMutability": "view",
      "type": "function"
    },
    {
      "inputs": [],
      "name": "owner",
      "outputs": [
        {
          "internalType": "address",
          "name": "",
          "type": "address"
        }
      ],
      "stateMutability": "view",
      "type": "function"
    },
    {
      "inputs": [],
      "name": "pause",
      "outputs": [],
      "stateMutability": "nonpayable",
      "type": "function"
    },
    {
      "inputs": [],
      "name": "paused",
      "outputs": [
        {
          "internalType": "bool",
          "name": "",
          "type": "bool"
        }
      ],
      "stateMutability": "view",
      "type": "function"
    },
    {
      "inputs": [],
      "name": "renounceOwnership",
      "outputs": [],
      "stateMutability": "nonpayable",
      "type": "function"
    },
    {
      "inputs": [
        {
          "internalType": "uint256",
          "name": "_depositDeadline",
          "type": "uint256"
        }
      ],
      "name": "setDepositDeadline",
      "outputs": [],
      "stateMutability": "nonpayable",
      "type": "function"
    },
    {
      "inputs": [
        {
          "internalType": "address",
          "name": "_nftAddress",
          "type": "address"
        }
      ],
      "name": "setNftContractnAddress",
      "outputs": [],
      "stateMutability": "nonpayable",
      "type": "function"
    },
    {
      "inputs": [
        {
          "internalType": "address",
          "name": "_newTokenAddress",
          "type": "address"
        }
      ],
      "name": "setTokenAddress",
      "outputs": [],
      "stateMutability": "nonpayable",
      "type": "function"
    },
    {
      "inputs": [],
      "name": "token",
      "outputs": [
        {
          "internalType": "contract IERC20",
          "name": "",
          "type": "address"
        }
      ],
      "stateMutability": "view",
      "type": "function"
    },
    {
      "inputs": [
        {
          "internalType": "address",
          "name": "newOwner",
          "type": "address"
        }
      ],
      "name": "transferOwnership",
      "outputs": [],
      "stateMutability": "nonpayable",
      "type": "function"
    },
    {
      "inputs": [],
      "name": "unpause",
      "outputs": [],
      "stateMutability": "nonpayable",
      "type": "function"
    },
    {
      "inputs": [
        {
          "internalType": "uint256",
          "name": "_index",
          "type": "uint256"
        }
      ],
      "name": "withdrawTokens",
      "outputs": [],
      "stateMutability": "nonpayable",
      "type": "function"
    }
  ],
  "bytecode": {
    "object": "0x608060405234801561001057600080fd5b50604051610f1b380380610f1b83398101604081905261002f916100e6565b6100383361007a565b6000805460ff60a01b1916905560018055600280546001600160a01b039384166001600160a01b03199182161790915560038054929093169116179055610119565b600080546001600160a01b038381166001600160a01b0319831681178455604051919092169283917f8be0079c531659141344cd1fd0a4f28419497f9722a3daafe3b4186f6b6457e09190a35050565b80516001600160a01b03811681146100e157600080fd5b919050565b600080604083850312156100f957600080fd5b610102836100ca565b9150610110602084016100ca565b90509250929050565b610df3806101286000396000f3fe608060405234801561001057600080fd5b50600436106101005760003560e01c80638da5cb5b11610097578063d8a8608111610066578063d8a8608114610213578063e2bbb15814610226578063f2fde38b14610239578063fc0c546a1461024c57600080fd5b80638da5cb5b1461019357806396d284b4146101b8578063b425f802146101cb578063d56d229d1461020057600080fd5b806361603d89116100d357806361603d8914610157578063715018a61461016e5780638456cb5914610176578063866a968a1461017e57600080fd5b806326a4e8d214610105578063315a095d1461011a5780633f4ba83a1461012d5780635c975abb14610135575b600080fd5b610118610113366004610c3c565b61025f565b005b610118610128366004610c5e565b610289565b6101186103af565b600054600160a01b900460ff1660405190151581526020015b60405180910390f35b61016060045481565b60405190815260200161014e565b6101186103db565b6101186103ed565b33600090815260056020526040902054610160565b6000546001600160a01b03165b6040516001600160a01b03909116815260200161014e565b6101186101c6366004610c3c565b6103f5565b6101de6101d9366004610c77565b61041f565b604080519485526020850193909352918301521515606082015260800161014e565b6003546101a0906001600160a01b031681565b610118610221366004610c5e565b610468565b610118610234366004610ca1565b610498565b610118610247366004610c3c565b61065f565b6002546101a0906001600160a01b031681565b6102676106dd565b600280546001600160a01b0319166001600160a01b0392909216919091179055565b336000908152600560205260409020548111156102b95760405163d11017ab60e01b815260040160405180910390fd5b3360009081526005602052604081208054839081106102da576102da610cc3565b60009182526020909120600490910201600381015490915060ff161561031357604051632d75825360e01b815260040160405180910390fd5b806001015481600201546103279190610cef565b4210156103475760405163634410ab60e11b815260040160405180910390fd5b805460038201805460ff1916600117905560025461036f906001600160a01b03163383610737565b604080514281526020810183905233917fdf273cb619d95419a9cd0ec88123a0538c85064229baa6363788f743fff90deb910160405180910390a2505050565b60045442106103d1576040516321c2cfa960e11b815260040160405180910390fd5b6103d961079f565b565b6103e36106dd565b6103d960006107f4565b6103d9610844565b6103fd6106dd565b600380546001600160a01b0319166001600160a01b0392909216919091179055565b6005602052816000526040600020818154811061043b57600080fd5b60009182526020909120600490910201805460018201546002830154600390930154919450925060ff1684565b6104706106dd565b426004541115610493576040516324d9283d60e11b815260040160405180910390fd5b600455565b6104a0610887565b6104a86108e0565b6004544211156104cb57604051637719ae3960e11b815260040160405180910390fd5b816000036104ec57604051633728d48160e01b815260040160405180910390fd5b8060000361050d576040516310f1124960e01b815260040160405180910390fd5b33600081815260056020908152604080832081516080810183528781528084018781524293820193845260608201868152835460018082018655948852959096209151600490950290910193845551908301555160028083019190915591516003909101805460ff191691151591909117905554610598916001600160a01b0390911690308561092d565b600260005b818110156106155760035460405163755edd1760e01b81523360048201526001600160a01b039091169063755edd1790602401600060405180830381600087803b1580156105ea57600080fd5b505af11580156105fe573d6000803e3d6000fd5b50505050808061060d90610d07565b91505061059d565b50604080514281526020810185905233917f90890809c654f11d6e72a28fa60149770a0d11ec6c92319d6ceb2bb0a4ea1a15910160405180910390a25061065b60018055565b5050565b6106676106dd565b6001600160a01b0381166106d15760405162461bcd60e51b815260206004820152602660248201527f4f776e61626c653a206e6577206f776e657220697320746865207a65726f206160448201526564647265737360d01b60648201526084015b60405180910390fd5b6106da816107f4565b50565b6000546001600160a01b031633146103d95760405162461bcd60e51b815260206004820181905260248201527f4f776e61626c653a2063616c6c6572206973206e6f7420746865206f776e657260448201526064016106c8565b6040516001600160a01b03831660248201526044810182905261079a90849063a9059cbb60e01b906064015b60408051601f198184030181529190526020810180516001600160e01b03166001600160e01b03199093169290921790915261096b565b505050565b6107a7610a40565b6000805460ff60a01b191690557f5db9ee0a495bf2e6ff9c91a7834c1ba4fdd244a5e8aa4e537bd38aeae4b073aa335b6040516001600160a01b03909116815260200160405180910390a1565b600080546001600160a01b038381166001600160a01b0319831681178455604051919092169283917f8be0079c531659141344cd1fd0a4f28419497f9722a3daafe3b4186f6b6457e09190a35050565b61084c6108e0565b6000805460ff60a01b1916600160a01b1790557f62e78cea01bee320cd4e420270b5ea74000d11b0c9f74754ebdbfc544b05a2586107d73390565b6002600154036108d95760405162461bcd60e51b815260206004820152601f60248201527f5265656e7472616e637947756172643a207265656e7472616e742063616c6c0060448201526064016106c8565b6002600155565b600054600160a01b900460ff16156103d95760405162461bcd60e51b815260206004820152601060248201526f14185d5cd8589b194e881c185d5cd95960821b60448201526064016106c8565b6040516001600160a01b03808516602483015283166044820152606481018290526109659085906323b872dd60e01b90608401610763565b50505050565b60006109c0826040518060400160405280602081526020017f5361666545524332303a206c6f772d6c6576656c2063616c6c206661696c6564815250856001600160a01b0316610a909092919063ffffffff16565b90508051600014806109e15750808060200190518101906109e19190610d20565b61079a5760405162461bcd60e51b815260206004820152602a60248201527f5361666545524332303a204552433230206f7065726174696f6e20646964206e6044820152691bdd081cdd58d8d9595960b21b60648201526084016106c8565b600054600160a01b900460ff166103d95760405162461bcd60e51b815260206004820152601460248201527314185d5cd8589b194e881b9bdd081c185d5cd95960621b60448201526064016106c8565b6060610a9f8484600085610aa7565b949350505050565b606082471015610b085760405162461bcd60e51b815260206004820152602660248201527f416464726573733a20696e73756666696369656e742062616c616e636520666f6044820152651c8818d85b1b60d21b60648201526084016106c8565b600080866001600160a01b03168587604051610b249190610d6e565b60006040518083038185875af1925050503d8060008114610b61576040519150601f19603f3d011682016040523d82523d6000602084013e610b66565b606091505b5091509150610b7787838387610b82565b979650505050505050565b60608315610bf1578251600003610bea576001600160a01b0385163b610bea5760405162461bcd60e51b815260206004820152601d60248201527f416464726573733a2063616c6c20746f206e6f6e2d636f6e747261637400000060448201526064016106c8565b5081610a9f565b610a9f8383815115610c065781518083602001fd5b8060405162461bcd60e51b81526004016106c89190610d8a565b80356001600160a01b0381168114610c3757600080fd5b919050565b600060208284031215610c4e57600080fd5b610c5782610c20565b9392505050565b600060208284031215610c7057600080fd5b5035919050565b60008060408385031215610c8a57600080fd5b610c9383610c20565b946020939093013593505050565b60008060408385031215610cb457600080fd5b50508035926020909101359150565b634e487b7160e01b600052603260045260246000fd5b634e487b7160e01b600052601160045260246000fd5b60008219821115610d0257610d02610cd9565b500190565b600060018201610d1957610d19610cd9565b5060010190565b600060208284031215610d3257600080fd5b81518015158114610c5757600080fd5b60005b83811015610d5d578181015183820152602001610d45565b838111156109655750506000910152565b60008251610d80818460208701610d42565b9190910192915050565b6020815260008251806020840152610da9816040850160208701610d42565b601f01601f1916919091016040019291505056fea26469706673582212206fb6f36e57379afd9c8cc8bf65f9c4b289ff09d63047aebace886028010645fd64736f6c634300080d0033",
    "linkReferences": {}
  },
  "methodIdentifiers": {
    "deposit(uint256,uint256)": "e2bbb158",
    "depositDeadline()": "61603d89",
    "getUserLockedBatchTokenCount()": "866a968a",
    "locks(address,uint256)": "b425f802",
    "nftContract()": "d56d229d",
    "owner()": "8da5cb5b",
    "pause()": "8456cb59",
    "paused()": "5c975abb",
    "renounceOwnership()": "715018a6",
    "setDepositDeadline(uint256)": "d8a86081",
    "setNftContractnAddress(address)": "96d284b4",
    "setTokenAddress(address)": "26a4e8d2",
    "token()": "fc0c546a",
    "transferOwnership(address)": "f2fde38b",
    "unpause()": "3f4ba83a",
    "withdrawTokens(uint256)": "315a095d"
  },
  "id": 9
}