{
  "abi": [
    {
      "inputs": [
        {
          "internalType": "string",
          "name": "_name",
          "type": "string"
        },
        {
          "internalType": "string",
          "name": "_symbol",
          "type": "string"
        },
        {
          "internalType": "string",
          "name": "_baseURI",
          "type": "string"
        }
      ],
      "stateMutability": "nonpayable",
      "type": "constructor"
    },
    {
      "anonymous": false,
      "inputs": [
        {
          "indexed": true,
          "internalType": "address",
          "name": "owner",
          "type": "address"
        },
        {
          "indexed": true,
          "internalType": "address",
          "name": "approved",
          "type": "address"
        },
        {
          "indexed": true,
          "internalType": "uint256",
          "name": "tokenId",
          "type": "uint256"
        }
      ],
      "name": "Approval",
      "type": "event"
    },
    {
      "anonymous": false,
      "inputs": [
        {
          "indexed": true,
          "internalType": "address",
          "name": "owner",
          "type": "address"
        },
        {
          "indexed": true,
          "internalType": "address",
          "name": "operator",
          "type": "address"
        },
        {
          "indexed": false,
          "internalType": "bool",
          "name": "approved",
          "type": "bool"
        }
      ],
      "name": "ApprovalForAll",
      "type": "event"
    },
    {
      "anonymous": false,
      "inputs": [
        {
          "indexed": true,
          "internalType": "address",
          "name": "previousOwner",
          "type": "address"
        },
        {
          "indexed": true,
          "internalType": "address",
          "name": "newOwner",
          "type": "address"
        }
      ],
      "name": "OwnershipTransferred",
      "type": "event"
    },
    {
      "anonymous": false,
      "inputs": [
        {
          "indexed": true,
          "internalType": "address",
          "name": "from",
          "type": "address"
        },
        {
          "indexed": true,
          "internalType": "address",
          "name": "to",
          "type": "address"
        },
        {
          "indexed": true,
          "internalType": "uint256",
          "name": "tokenId",
          "type": "uint256"
        }
      ],
      "name": "Transfer",
      "type": "event"
    },
    {
      "inputs": [
        {
          "internalType": "address",
          "name": "to",
          "type": "address"
        },
        {
          "internalType": "uint256",
          "name": "tokenId",
          "type": "uint256"
        }
      ],
      "name": "approve",
      "outputs": [],
      "stateMutability": "nonpayable",
      "type": "function"
    },
    {
      "inputs": [
        {
          "internalType": "address",
          "name": "owner",
          "type": "address"
        }
      ],
      "name": "balanceOf",
      "outputs": [
        {
          "internalType": "uint256",
          "name": "",
          "type": "uint256"
        }
      ],
      "stateMutability": "view",
      "type": "function"
    },
    {
      "inputs": [],
      "name": "baseURI",
      "outputs": [
        {
          "internalType": "string",
          "name": "",
          "type": "string"
        }
      ],
      "stateMutability": "view",
      "type": "function"
    },
    {
      "inputs": [],
      "name": "currentTokenId",
      "outputs": [
        {
          "internalType": "uint256",
          "name": "",
          "type": "uint256"
        }
      ],
      "stateMutability": "view",
      "type": "function"
    },
    {
      "inputs": [
        {
          "internalType": "uint256",
          "name": "tokenId",
          "type": "uint256"
        }
      ],
      "name": "getApproved",
      "outputs": [
        {
          "internalType": "address",
          "name": "",
          "type": "address"
        }
      ],
      "stateMutability": "view",
      "type": "function"
    },
    {
      "inputs": [
        {
          "internalType": "address",
          "name": "owner",
          "type": "address"
        },
        {
          "internalType": "address",
          "name": "operator",
          "type": "address"
        }
      ],
      "name": "isApprovedForAll",
      "outputs": [
        {
          "internalType": "bool",
          "name": "",
          "type": "bool"
        }
      ],
      "stateMutability": "view",
      "type": "function"
    },
    {
      "inputs": [
        {
          "internalType": "address",
          "name": "recipient",
          "type": "address"
        }
      ],
      "name": "mintTo",
      "outputs": [
        {
          "internalType": "uint256",
          "name": "",
          "type": "uint256"
        }
      ],
      "stateMutability": "payable",
      "type": "function"
    },
    {
      "inputs": [],
      "name": "name",
      "outputs": [
        {
          "internalType": "string",
          "name": "",
          "type": "string"
        }
      ],
      "stateMutability": "view",
      "type": "function"
    },
    {
      "inputs": [],
      "name": "owner",
      "outputs": [
        {
          "internalType": "address",
          "name": "",
          "type": "address"
        }
      ],
      "stateMutability": "view",
      "type": "function"
    },
    {
      "inputs": [
        {
          "internalType": "uint256",
          "name": "tokenId",
          "type": "uint256"
        }
      ],
      "name": "ownerOf",
      "outputs": [
        {
          "internalType": "address",
          "name": "",
          "type": "address"
        }
      ],
      "stateMutability": "view",
      "type": "function"
    },
    {
      "inputs": [],
      "name": "renounceOwnership",
      "outputs": [],
      "stateMutability": "nonpayable",
      "type": "function"
    },
    {
      "inputs": [
        {
          "internalType": "address",
          "name": "from",
          "type": "address"
        },
        {
          "internalType": "address",
          "name": "to",
          "type": "address"
        },
        {
          "internalType": "uint256",
          "name": "tokenId",
          "type": "uint256"
        }
      ],
      "name": "safeTransferFrom",
      "outputs": [],
      "stateMutability": "nonpayable",
      "type": "function"
    },
    {
      "inputs": [
        {
          "internalType": "address",
          "name": "from",
          "type": "address"
        },
        {
          "internalType": "address",
          "name": "to",
          "type": "address"
        },
        {
          "internalType": "uint256",
          "name": "tokenId",
          "type": "uint256"
        },
        {
          "internalType": "bytes",
          "name": "data",
          "type": "bytes"
        }
      ],
      "name": "safeTransferFrom",
      "outputs": [],
      "stateMutability": "nonpayable",
      "type": "function"
    },
    {
      "inputs": [
        {
          "internalType": "address",
          "name": "operator",
          "type": "address"
        },
        {
          "internalType": "bool",
          "name": "approved",
          "type": "bool"
        }
      ],
      "name": "setApprovalForAll",
      "outputs": [],
      "stateMutability": "nonpayable",
      "type": "function"
    },
    {
      "inputs": [
        {
          "internalType": "bytes4",
          "name": "interfaceId",
          "type": "bytes4"
        }
      ],
      "name": "supportsInterface",
      "outputs": [
        {
          "internalType": "bool",
          "name": "",
          "type": "bool"
        }
      ],
      "stateMutability": "view",
      "type": "function"
    },
    {
      "inputs": [],
      "name": "symbol",
      "outputs": [
        {
          "internalType": "string",
          "name": "",
          "type": "string"
        }
      ],
      "stateMutability": "view",
      "type": "function"
    },
    {
      "inputs": [
        {
          "internalType": "uint256",
          "name": "tokenId",
          "type": "uint256"
        }
      ],
      "name": "tokenURI",
      "outputs": [
        {
          "internalType": "string",
          "name": "",
          "type": "string"
        }
      ],
      "stateMutability": "view",
      "type": "function"
    },
    {
      "inputs": [
        {
          "internalType": "address",
          "name": "from",
          "type": "address"
        },
        {
          "internalType": "address",
          "name": "to",
          "type": "address"
        },
        {
          "internalType": "uint256",
          "name": "tokenId",
          "type": "uint256"
        }
      ],
      "name": "transferFrom",
      "outputs": [],
      "stateMutability": "nonpayable",
      "type": "function"
    },
    {
      "inputs": [
        {
          "internalType": "address",
          "name": "newOwner",
          "type": "address"
        }
      ],
      "name": "transferOwnership",
      "outputs": [],
      "stateMutability": "nonpayable",
      "type": "function"
    }
  ],
  "bytecode": {
    "object": "0x60806040523480156200001157600080fd5b5060405162001aa138038062001aa1833981016040819052620000349162000268565b8251839083906200004d906000906020850190620000f5565b50805162000063906001906020840190620000f5565b505050620000806200007a6200009f60201b60201c565b620000a3565b805162000095906007906020840190620000f5565b5050505062000335565b3390565b600680546001600160a01b038381166001600160a01b0319831681179093556040519116919082907f8be0079c531659141344cd1fd0a4f28419497f9722a3daafe3b4186f6b6457e090600090a35050565b8280546200010390620002f9565b90600052602060002090601f01602090048101928262000127576000855562000172565b82601f106200014257805160ff191683800117855562000172565b8280016001018555821562000172579182015b828111156200017257825182559160200191906001019062000155565b506200018092915062000184565b5090565b5b8082111562000180576000815560010162000185565b634e487b7160e01b600052604160045260246000fd5b600082601f830112620001c357600080fd5b81516001600160401b0380821115620001e057620001e06200019b565b604051601f8301601f19908116603f011681019082821181831017156200020b576200020b6200019b565b816040528381526020925086838588010111156200022857600080fd5b600091505b838210156200024c57858201830151818301840152908201906200022d565b838211156200025e5760008385830101525b9695505050505050565b6000806000606084860312156200027e57600080fd5b83516001600160401b03808211156200029657600080fd5b620002a487838801620001b1565b94506020860151915080821115620002bb57600080fd5b620002c987838801620001b1565b93506040860151915080821115620002e057600080fd5b50620002ef86828701620001b1565b9150509250925092565b600181811c908216806200030e57607f821691505b6020821081036200032f57634e487b7160e01b600052602260045260246000fd5b50919050565b61175c80620003456000396000f3fe6080604052600436106101135760003560e01c806370a08231116100a0578063a22cb46511610064578063a22cb465146102dd578063b88d4fde146102fd578063c87b56dd1461031d578063e985e9c51461033d578063f2fde38b1461038657600080fd5b806370a0823114610262578063715018a614610282578063755edd17146102975780638da5cb5b146102aa57806395d89b41146102c857600080fd5b8063095ea7b3116100e7578063095ea7b3146101cb57806323b872dd146101ed57806342842e0e1461020d5780636352211e1461022d5780636c0360eb1461024d57600080fd5b80629a9b7b1461011857806301ffc9a71461014157806306fdde0314610171578063081812fc14610193575b600080fd5b34801561012457600080fd5b5061012e60085481565b6040519081526020015b60405180910390f35b34801561014d57600080fd5b5061016161015c36600461121f565b6103a6565b6040519015158152602001610138565b34801561017d57600080fd5b506101866103f8565b604051610138919061129b565b34801561019f57600080fd5b506101b36101ae3660046112ae565b61048a565b6040516001600160a01b039091168152602001610138565b3480156101d757600080fd5b506101eb6101e63660046112e3565b6104b1565b005b3480156101f957600080fd5b506101eb61020836600461130d565b6105cb565b34801561021957600080fd5b506101eb61022836600461130d565b6105fc565b34801561023957600080fd5b506101b36102483660046112ae565b610617565b34801561025957600080fd5b50610186610677565b34801561026e57600080fd5b5061012e61027d366004611349565b610705565b34801561028e57600080fd5b506101eb61078b565b61012e6102a5366004611349565b61079f565b3480156102b657600080fd5b506006546001600160a01b03166101b3565b3480156102d457600080fd5b506101866107c2565b3480156102e957600080fd5b506101eb6102f8366004611364565b6107d1565b34801561030957600080fd5b506101eb6103183660046113b6565b6107e0565b34801561032957600080fd5b506101866103383660046112ae565b610818565b34801561034957600080fd5b50610161610358366004611492565b6001600160a01b03918216600090815260056020908152604080832093909416825291909152205460ff1690565b34801561039257600080fd5b506101eb6103a1366004611349565b6108ef565b60006001600160e01b031982166380ac58cd60e01b14806103d757506001600160e01b03198216635b5e139f60e01b145b806103f257506301ffc9a760e01b6001600160e01b03198316145b92915050565b606060008054610407906114c5565b80601f0160208091040260200160405190810160405280929190818152602001828054610433906114c5565b80156104805780601f1061045557610100808354040283529160200191610480565b820191906000526020600020905b81548152906001019060200180831161046357829003601f168201915b5050505050905090565b600061049582610968565b506000908152600460205260409020546001600160a01b031690565b60006104bc82610617565b9050806001600160a01b0316836001600160a01b03160361052e5760405162461bcd60e51b815260206004820152602160248201527f4552433732313a20617070726f76616c20746f2063757272656e74206f776e656044820152603960f91b60648201526084015b60405180910390fd5b336001600160a01b038216148061054a575061054a8133610358565b6105bc5760405162461bcd60e51b815260206004820152603d60248201527f4552433732313a20617070726f76652063616c6c6572206973206e6f7420746f60448201527f6b656e206f776e6572206f7220617070726f76656420666f7220616c6c0000006064820152608401610525565b6105c683836109c7565b505050565b6105d53382610a35565b6105f15760405162461bcd60e51b8152600401610525906114ff565b6105c6838383610ab4565b6105c6838383604051806020016040528060008152506107e0565b6000818152600260205260408120546001600160a01b0316806103f25760405162461bcd60e51b8152602060048201526018602482015277115490cdcc8c4e881a5b9d985b1a59081d1bdad95b88125160421b6044820152606401610525565b60078054610684906114c5565b80601f01602080910402602001604051908101604052809291908181526020018280546106b0906114c5565b80156106fd5780601f106106d2576101008083540402835291602001916106fd565b820191906000526020600020905b8154815290600101906020018083116106e057829003601f168201915b505050505081565b60006001600160a01b03821661076f5760405162461bcd60e51b815260206004820152602960248201527f4552433732313a2061646472657373207a65726f206973206e6f7420612076616044820152683634b21037bbb732b960b91b6064820152608401610525565b506001600160a01b031660009081526003602052604090205490565b610793610c18565b61079d6000610c72565b565b6000806008600081546107b19061154c565b918290555090506103f28382610cc4565b606060018054610407906114c5565b6107dc338383610cde565b5050565b6107ea3383610a35565b6108065760405162461bcd60e51b8152600401610525906114ff565b61081284848484610dac565b50505050565b6060600061082583610617565b6001600160a01b0316036108935760405162461bcd60e51b815260206004820152602f60248201527f4552433732314d657461646174613a2055524920717565727920666f72206e6f60448201526e3732bc34b9ba32b73a103a37b5b2b760891b6064820152608401610525565b6000600780546108a2906114c5565b9050116108be57604051806020016040528060008152506103f2565b60076108c983610ddf565b6040516020016108da92919061158f565b60405160208183030381529060405292915050565b6108f7610c18565b6001600160a01b03811661095c5760405162461bcd60e51b815260206004820152602660248201527f4f776e61626c653a206e6577206f776e657220697320746865207a65726f206160448201526564647265737360d01b6064820152608401610525565b61096581610c72565b50565b6000818152600260205260409020546001600160a01b03166109655760405162461bcd60e51b8152602060048201526018602482015277115490cdcc8c4e881a5b9d985b1a59081d1bdad95b88125160421b6044820152606401610525565b600081815260046020526040902080546001600160a01b0319166001600160a01b03841690811790915581906109fc82610617565b6001600160a01b03167f8c5be1e5ebec7d5bd14f71427d1e84f3dd0314c0f7b2291e5b200ac8c7c3b92560405160405180910390a45050565b600080610a4183610617565b9050806001600160a01b0316846001600160a01b03161480610a8857506001600160a01b0380821660009081526005602090815260408083209388168352929052205460ff165b80610aac5750836001600160a01b0316610aa18461048a565b6001600160a01b0316145b949350505050565b826001600160a01b0316610ac782610617565b6001600160a01b031614610aed5760405162461bcd60e51b815260040161052590611635565b6001600160a01b038216610b4f5760405162461bcd60e51b8152602060048201526024808201527f4552433732313a207472616e7366657220746f20746865207a65726f206164646044820152637265737360e01b6064820152608401610525565b826001600160a01b0316610b6282610617565b6001600160a01b031614610b885760405162461bcd60e51b815260040161052590611635565b600081815260046020908152604080832080546001600160a01b03199081169091556001600160a01b0387811680865260038552838620805460001901905590871680865283862080546001019055868652600290945282852080549092168417909155905184937fddf252ad1be2c89b69c2b068fc378daa952ba7f163c4a11628f55a4df523b3ef91a4505050565b6006546001600160a01b0316331461079d5760405162461bcd60e51b815260206004820181905260248201527f4f776e61626c653a2063616c6c6572206973206e6f7420746865206f776e65726044820152606401610525565b600680546001600160a01b038381166001600160a01b0319831681179093556040519116919082907f8be0079c531659141344cd1fd0a4f28419497f9722a3daafe3b4186f6b6457e090600090a35050565b6107dc828260405180602001604052806000815250610e72565b816001600160a01b0316836001600160a01b031603610d3f5760405162461bcd60e51b815260206004820152601960248201527f4552433732313a20617070726f766520746f2063616c6c6572000000000000006044820152606401610525565b6001600160a01b03838116600081815260056020908152604080832094871680845294825291829020805460ff191686151590811790915591519182527f17307eab39ab6107e8899845ad3d59bd9653f200f220920489ca2b5937696c31910160405180910390a3505050565b610db7848484610ab4565b610dc384848484610ea5565b6108125760405162461bcd60e51b81526004016105259061167a565b60606000610dec83610fa6565b600101905060008167ffffffffffffffff811115610e0c57610e0c6113a0565b6040519080825280601f01601f191660200182016040528015610e36576020820181803683370190505b5090508181016020015b600019016f181899199a1a9b1b9c1cb0b131b232b360811b600a86061a8153600a8504945084610e4057509392505050565b610e7c838361107e565b610e896000848484610ea5565b6105c65760405162461bcd60e51b81526004016105259061167a565b60006001600160a01b0384163b15610f9b57604051630a85bd0160e11b81526001600160a01b0385169063150b7a0290610ee99033908990889088906004016116cc565b6020604051808303816000875af1925050508015610f24575060408051601f3d908101601f19168201909252610f2191810190611709565b60015b610f81573d808015610f52576040519150601f19603f3d011682016040523d82523d6000602084013e610f57565b606091505b508051600003610f795760405162461bcd60e51b81526004016105259061167a565b805181602001fd5b6001600160e01b031916630a85bd0160e11b149050610aac565b506001949350505050565b60008072184f03e93ff9f4daa797ed6e38ed64bf6a1f0160401b8310610fe55772184f03e93ff9f4daa797ed6e38ed64bf6a1f0160401b830492506040015b6d04ee2d6d415b85acef81000000008310611011576d04ee2d6d415b85acef8100000000830492506020015b662386f26fc10000831061102f57662386f26fc10000830492506010015b6305f5e1008310611047576305f5e100830492506008015b612710831061105b57612710830492506004015b6064831061106d576064830492506002015b600a83106103f25760010192915050565b6001600160a01b0382166110d45760405162461bcd60e51b815260206004820181905260248201527f4552433732313a206d696e7420746f20746865207a65726f20616464726573736044820152606401610525565b6000818152600260205260409020546001600160a01b0316156111395760405162461bcd60e51b815260206004820152601c60248201527f4552433732313a20746f6b656e20616c7265616479206d696e746564000000006044820152606401610525565b6000818152600260205260409020546001600160a01b03161561119e5760405162461bcd60e51b815260206004820152601c60248201527f4552433732313a20746f6b656e20616c7265616479206d696e746564000000006044820152606401610525565b6001600160a01b038216600081815260036020908152604080832080546001019055848352600290915280822080546001600160a01b0319168417905551839291907fddf252ad1be2c89b69c2b068fc378daa952ba7f163c4a11628f55a4df523b3ef908290a45050565b6001600160e01b03198116811461096557600080fd5b60006020828403121561123157600080fd5b813561123c81611209565b9392505050565b60005b8381101561125e578181015183820152602001611246565b838111156108125750506000910152565b60008151808452611287816020860160208601611243565b601f01601f19169290920160200192915050565b60208152600061123c602083018461126f565b6000602082840312156112c057600080fd5b5035919050565b80356001600160a01b03811681146112de57600080fd5b919050565b600080604083850312156112f657600080fd5b6112ff836112c7565b946020939093013593505050565b60008060006060848603121561132257600080fd5b61132b846112c7565b9250611339602085016112c7565b9150604084013590509250925092565b60006020828403121561135b57600080fd5b61123c826112c7565b6000806040838503121561137757600080fd5b611380836112c7565b91506020830135801515811461139557600080fd5b809150509250929050565b634e487b7160e01b600052604160045260246000fd5b600080600080608085870312156113cc57600080fd5b6113d5856112c7565b93506113e3602086016112c7565b925060408501359150606085013567ffffffffffffffff8082111561140757600080fd5b818701915087601f83011261141b57600080fd5b81358181111561142d5761142d6113a0565b604051601f8201601f19908116603f01168101908382118183101715611455576114556113a0565b816040528281528a602084870101111561146e57600080fd5b82602086016020830137600060208483010152809550505050505092959194509250565b600080604083850312156114a557600080fd5b6114ae836112c7565b91506114bc602084016112c7565b90509250929050565b600181811c908216806114d957607f821691505b6020821081036114f957634e487b7160e01b600052602260045260246000fd5b50919050565b6020808252602d908201527f4552433732313a2063616c6c6572206973206e6f7420746f6b656e206f776e6560408201526c1c881bdc88185c1c1c9bdd9959609a1b606082015260800190565b60006001820161156c57634e487b7160e01b600052601160045260246000fd5b5060010190565b60008151611585818560208601611243565b9290920192915050565b600080845481600182811c9150808316806115ab57607f831692505b602080841082036115ca57634e487b7160e01b86526022600452602486fd5b8180156115de57600181146115ef5761161c565b60ff1986168952848901965061161c565b60008b81526020902060005b868110156116145781548b8201529085019083016115fb565b505084890196505b50505050505061162c8185611573565b95945050505050565b60208082526025908201527f4552433732313a207472616e736665722066726f6d20696e636f72726563742060408201526437bbb732b960d91b606082015260800190565b60208082526032908201527f4552433732313a207472616e7366657220746f206e6f6e20455243373231526560408201527131b2b4bb32b91034b6b83632b6b2b73a32b960711b606082015260800190565b6001600160a01b03858116825284166020820152604081018390526080606082018190526000906116ff9083018461126f565b9695505050505050565b60006020828403121561171b57600080fd5b815161123c8161120956fea2646970667358221220c15c3c22e1edf0aa2bf3b1c33c5df7e30dc02dd45c0c7e397c6ae4451505ef5e64736f6c634300080d0033",
    "linkReferences": {}
  },
  "methodIdentifiers": {
    "approve(address,uint256)": "095ea7b3",
    "balanceOf(address)": "70a08231",
    "baseURI()": "6c0360eb",
    "currentTokenId()": "009a9b7b",
    "getApproved(uint256)": "081812fc",
    "isApprovedForAll(address,address)": "e985e9c5",
    "mintTo(address)": "755edd17",
    "name()": "06fdde03",
    "owner()": "8da5cb5b",
    "ownerOf(uint256)": "6352211e",
    "renounceOwnership()": "715018a6",
    "safeTransferFrom(address,address,uint256)": "42842e0e",
    "safeTransferFrom(address,address,uint256,bytes)": "b88d4fde",
    "setApprovalForAll(address,bool)": "a22cb465",
    "supportsInterface(bytes4)": "01ffc9a7",
    "symbol()": "95d89b41",
    "tokenURI(uint256)": "c87b56dd",
    "transferFrom(address,address,uint256)": "23b872dd",
    "transferOwnership(address)": "f2fde38b"
  },
  "id": 29
}