{
  "abi": [
    {
      "inputs": [
        {
          "internalType": "string",
          "name": "_name",
          "type": "string"
        },
        {
          "internalType": "string",
          "name": "_symbol",
          "type": "string"
        },
        {
          "internalType": "string",
          "name": "_baseURI",
          "type": "string"
        }
      ],
      "stateMutability": "nonpayable",
      "type": "constructor"
    },
    {
      "anonymous": false,
      "inputs": [
        {
          "indexed": true,
          "internalType": "address",
          "name": "owner",
          "type": "address"
        },
        {
          "indexed": true,
          "internalType": "address",
          "name": "approved",
          "type": "address"
        },
        {
          "indexed": true,
          "internalType": "uint256",
          "name": "tokenId",
          "type": "uint256"
        }
      ],
      "name": "Approval",
      "type": "event"
    },
    {
      "anonymous": false,
      "inputs": [
        {
          "indexed": true,
          "internalType": "address",
          "name": "owner",
          "type": "address"
        },
        {
          "indexed": true,
          "internalType": "address",
          "name": "operator",
          "type": "address"
        },
        {
          "indexed": false,
          "internalType": "bool",
          "name": "approved",
          "type": "bool"
        }
      ],
      "name": "ApprovalForAll",
      "type": "event"
    },
    {
      "anonymous": false,
      "inputs": [
        {
          "indexed": true,
          "internalType": "address",
          "name": "previousOwner",
          "type": "address"
        },
        {
          "indexed": true,
          "internalType": "address",
          "name": "newOwner",
          "type": "address"
        }
      ],
      "name": "OwnershipTransferred",
      "type": "event"
    },
    {
      "anonymous": false,
      "inputs": [
        {
          "indexed": true,
          "internalType": "address",
          "name": "from",
          "type": "address"
        },
        {
          "indexed": true,
          "internalType": "address",
          "name": "to",
          "type": "address"
        },
        {
          "indexed": true,
          "internalType": "uint256",
          "name": "tokenId",
          "type": "uint256"
        }
      ],
      "name": "Transfer",
      "type": "event"
    },
    {
      "inputs": [],
      "name": "MINT_PRICE",
      "outputs": [
        {
          "internalType": "uint256",
          "name": "",
          "type": "uint256"
        }
      ],
      "stateMutability": "view",
      "type": "function"
    },
    {
      "inputs": [],
      "name": "TOTAL_SUPPLY",
      "outputs": [
        {
          "internalType": "uint256",
          "name": "",
          "type": "uint256"
        }
      ],
      "stateMutability": "view",
      "type": "function"
    },
    {
      "inputs": [
        {
          "internalType": "address",
          "name": "to",
          "type": "address"
        },
        {
          "internalType": "uint256",
          "name": "tokenId",
          "type": "uint256"
        }
      ],
      "name": "approve",
      "outputs": [],
      "stateMutability": "nonpayable",
      "type": "function"
    },
    {
      "inputs": [
        {
          "internalType": "address",
          "name": "owner",
          "type": "address"
        }
      ],
      "name": "balanceOf",
      "outputs": [
        {
          "internalType": "uint256",
          "name": "",
          "type": "uint256"
        }
      ],
      "stateMutability": "view",
      "type": "function"
    },
    {
      "inputs": [],
      "name": "baseURI",
      "outputs": [
        {
          "internalType": "string",
          "name": "",
          "type": "string"
        }
      ],
      "stateMutability": "view",
      "type": "function"
    },
    {
      "inputs": [],
      "name": "currentTokenId",
      "outputs": [
        {
          "internalType": "uint256",
          "name": "",
          "type": "uint256"
        }
      ],
      "stateMutability": "view",
      "type": "function"
    },
    {
      "inputs": [
        {
          "internalType": "uint256",
          "name": "tokenId",
          "type": "uint256"
        }
      ],
      "name": "getApproved",
      "outputs": [
        {
          "internalType": "address",
          "name": "",
          "type": "address"
        }
      ],
      "stateMutability": "view",
      "type": "function"
    },
    {
      "inputs": [
        {
          "internalType": "address",
          "name": "owner",
          "type": "address"
        },
        {
          "internalType": "address",
          "name": "operator",
          "type": "address"
        }
      ],
      "name": "isApprovedForAll",
      "outputs": [
        {
          "internalType": "bool",
          "name": "",
          "type": "bool"
        }
      ],
      "stateMutability": "view",
      "type": "function"
    },
    {
      "inputs": [
        {
          "internalType": "address",
          "name": "recipient",
          "type": "address"
        }
      ],
      "name": "mintTo",
      "outputs": [
        {
          "internalType": "uint256",
          "name": "",
          "type": "uint256"
        }
      ],
      "stateMutability": "payable",
      "type": "function"
    },
    {
      "inputs": [],
      "name": "name",
      "outputs": [
        {
          "internalType": "string",
          "name": "",
          "type": "string"
        }
      ],
      "stateMutability": "view",
      "type": "function"
    },
    {
      "inputs": [],
      "name": "owner",
      "outputs": [
        {
          "internalType": "address",
          "name": "",
          "type": "address"
        }
      ],
      "stateMutability": "view",
      "type": "function"
    },
    {
      "inputs": [
        {
          "internalType": "uint256",
          "name": "tokenId",
          "type": "uint256"
        }
      ],
      "name": "ownerOf",
      "outputs": [
        {
          "internalType": "address",
          "name": "",
          "type": "address"
        }
      ],
      "stateMutability": "view",
      "type": "function"
    },
    {
      "inputs": [
        {
          "internalType": "address",
          "name": "dest",
          "type": "address"
        }
      ],
      "name": "payments",
      "outputs": [
        {
          "internalType": "uint256",
          "name": "",
          "type": "uint256"
        }
      ],
      "stateMutability": "view",
      "type": "function"
    },
    {
      "inputs": [],
      "name": "renounceOwnership",
      "outputs": [],
      "stateMutability": "nonpayable",
      "type": "function"
    },
    {
      "inputs": [
        {
          "internalType": "address",
          "name": "from",
          "type": "address"
        },
        {
          "internalType": "address",
          "name": "to",
          "type": "address"
        },
        {
          "internalType": "uint256",
          "name": "tokenId",
          "type": "uint256"
        }
      ],
      "name": "safeTransferFrom",
      "outputs": [],
      "stateMutability": "nonpayable",
      "type": "function"
    },
    {
      "inputs": [
        {
          "internalType": "address",
          "name": "from",
          "type": "address"
        },
        {
          "internalType": "address",
          "name": "to",
          "type": "address"
        },
        {
          "internalType": "uint256",
          "name": "tokenId",
          "type": "uint256"
        },
        {
          "internalType": "bytes",
          "name": "data",
          "type": "bytes"
        }
      ],
      "name": "safeTransferFrom",
      "outputs": [],
      "stateMutability": "nonpayable",
      "type": "function"
    },
    {
      "inputs": [
        {
          "internalType": "address",
          "name": "operator",
          "type": "address"
        },
        {
          "internalType": "bool",
          "name": "approved",
          "type": "bool"
        }
      ],
      "name": "setApprovalForAll",
      "outputs": [],
      "stateMutability": "nonpayable",
      "type": "function"
    },
    {
      "inputs": [
        {
          "internalType": "bytes4",
          "name": "interfaceId",
          "type": "bytes4"
        }
      ],
      "name": "supportsInterface",
      "outputs": [
        {
          "internalType": "bool",
          "name": "",
          "type": "bool"
        }
      ],
      "stateMutability": "view",
      "type": "function"
    },
    {
      "inputs": [],
      "name": "symbol",
      "outputs": [
        {
          "internalType": "string",
          "name": "",
          "type": "string"
        }
      ],
      "stateMutability": "view",
      "type": "function"
    },
    {
      "inputs": [
        {
          "internalType": "uint256",
          "name": "tokenId",
          "type": "uint256"
        }
      ],
      "name": "tokenURI",
      "outputs": [
        {
          "internalType": "string",
          "name": "",
          "type": "string"
        }
      ],
      "stateMutability": "view",
      "type": "function"
    },
    {
      "inputs": [
        {
          "internalType": "address",
          "name": "from",
          "type": "address"
        },
        {
          "internalType": "address",
          "name": "to",
          "type": "address"
        },
        {
          "internalType": "uint256",
          "name": "tokenId",
          "type": "uint256"
        }
      ],
      "name": "transferFrom",
      "outputs": [],
      "stateMutability": "nonpayable",
      "type": "function"
    },
    {
      "inputs": [
        {
          "internalType": "address",
          "name": "newOwner",
          "type": "address"
        }
      ],
      "name": "transferOwnership",
      "outputs": [],
      "stateMutability": "nonpayable",
      "type": "function"
    },
    {
      "inputs": [
        {
          "internalType": "address payable",
          "name": "payee",
          "type": "address"
        }
      ],
      "name": "withdrawPayments",
      "outputs": [],
      "stateMutability": "nonpayable",
      "type": "function"
    }
  ],
  "bytecode": {
    "object": "0x60a06040523480156200001157600080fd5b50604051620023003803806200230083398101604081905262000034916200029b565b8251839083906200004d9060009060208501906200011a565b508051620000639060019060208401906200011a565b5050506040516200007490620001a9565b604051809103906000f08015801562000091573d6000803e3d6000fd5b506001600160a01b0316608052620000a933620000c8565b8051620000be9060079060208401906200011a565b5050505062000368565b600680546001600160a01b038381166001600160a01b0319831681179093556040519116919082907f8be0079c531659141344cd1fd0a4f28419497f9722a3daafe3b4186f6b6457e090600090a35050565b82805462000128906200032c565b90600052602060002090601f0160209004810192826200014c576000855562000197565b82601f106200016757805160ff191683800117855562000197565b8280016001018555821562000197579182015b82811115620001975782518255916020019190600101906200017a565b50620001a5929150620001b7565b5090565b61058b8062001d7583390190565b5b80821115620001a55760008155600101620001b8565b634e487b7160e01b600052604160045260246000fd5b600082601f830112620001f657600080fd5b81516001600160401b0380821115620002135762000213620001ce565b604051601f8301601f19908116603f011681019082821181831017156200023e576200023e620001ce565b816040528381526020925086838588010111156200025b57600080fd5b600091505b838210156200027f578582018301518183018401529082019062000260565b83821115620002915760008385830101525b9695505050505050565b600080600060608486031215620002b157600080fd5b83516001600160401b0380821115620002c957600080fd5b620002d787838801620001e4565b94506020860151915080821115620002ee57600080fd5b620002fc87838801620001e4565b935060408601519150808211156200031357600080fd5b506200032286828701620001e4565b9150509250925092565b600181811c908216806200034157607f821691505b6020821081036200036257634e487b7160e01b600052602260045260246000fd5b50919050565b6080516119ea6200038b60003960008181610a790152610e8501526119ea6000f3fe60806040526004361061013f5760003560e01c8063715018a6116100b6578063b88d4fde1161006f578063b88d4fde1461035f578063c002d23d1461037f578063c87b56dd1461039b578063e2982c21146103bb578063e985e9c5146103db578063f2fde38b1461042457600080fd5b8063715018a6146102ce578063755edd17146102e35780638da5cb5b146102f6578063902d55a51461031457806395d89b411461032a578063a22cb4651461033f57600080fd5b806323b872dd1161010857806323b872dd1461021957806331b3eb941461023957806342842e0e146102595780636352211e146102795780636c0360eb1461029957806370a08231146102ae57600080fd5b80629a9b7b1461014457806301ffc9a71461016d57806306fdde031461019d578063081812fc146101bf578063095ea7b3146101f7575b600080fd5b34801561015057600080fd5b5061015a60085481565b6040519081526020015b60405180910390f35b34801561017957600080fd5b5061018d610188366004611491565b610444565b6040519015158152602001610164565b3480156101a957600080fd5b506101b2610496565b604051610164919061150d565b3480156101cb57600080fd5b506101df6101da366004611520565b610528565b6040516001600160a01b039091168152602001610164565b34801561020357600080fd5b5061021761021236600461154e565b61054f565b005b34801561022557600080fd5b5061021761023436600461157a565b610669565b34801561024557600080fd5b506102176102543660046115bb565b61069a565b34801561026557600080fd5b5061021761027436600461157a565b6106ae565b34801561028557600080fd5b506101df610294366004611520565b6106c9565b3480156102a557600080fd5b506101b2610729565b3480156102ba57600080fd5b5061015a6102c93660046115bb565b6107b7565b3480156102da57600080fd5b5061021761083d565b61015a6102f13660046115bb565b610851565b34801561030257600080fd5b506006546001600160a01b03166101df565b34801561032057600080fd5b5061015a61271081565b34801561033657600080fd5b506101b261092a565b34801561034b57600080fd5b5061021761035a3660046115d8565b610939565b34801561036b57600080fd5b5061021761037a36600461162c565b610948565b34801561038b57600080fd5b5061015a67011c37937e08000081565b3480156103a757600080fd5b506101b26103b6366004611520565b610980565b3480156103c757600080fd5b5061015a6103d63660046115bb565b610a57565b3480156103e757600080fd5b5061018d6103f636600461170c565b6001600160a01b03918216600090815260056020908152604080832093909416825291909152205460ff1690565b34801561043057600080fd5b5061021761043f3660046115bb565b610ae6565b60006001600160e01b031982166380ac58cd60e01b148061047557506001600160e01b03198216635b5e139f60e01b145b8061049057506301ffc9a760e01b6001600160e01b03198316145b92915050565b6060600080546104a59061173a565b80601f01602080910402602001604051908101604052809291908181526020018280546104d19061173a565b801561051e5780601f106104f35761010080835404028352916020019161051e565b820191906000526020600020905b81548152906001019060200180831161050157829003601f168201915b5050505050905090565b600061053382610b5c565b506000908152600460205260409020546001600160a01b031690565b600061055a826106c9565b9050806001600160a01b0316836001600160a01b0316036105cc5760405162461bcd60e51b815260206004820152602160248201527f4552433732313a20617070726f76616c20746f2063757272656e74206f776e656044820152603960f91b60648201526084015b60405180910390fd5b336001600160a01b03821614806105e857506105e881336103f6565b61065a5760405162461bcd60e51b815260206004820152603d60248201527f4552433732313a20617070726f76652063616c6c6572206973206e6f7420746f60448201527f6b656e206f776e6572206f7220617070726f76656420666f7220616c6c00000060648201526084016105c3565b6106648383610bbb565b505050565b6106733382610c29565b61068f5760405162461bcd60e51b81526004016105c390611774565b610664838383610ca8565b6106a2610e0c565b6106ab81610e66565b50565b61066483838360405180602001604052806000815250610948565b6000818152600260205260408120546001600160a01b0316806104905760405162461bcd60e51b8152602060048201526018602482015277115490cdcc8c4e881a5b9d985b1a59081d1bdad95b88125160421b60448201526064016105c3565b600780546107369061173a565b80601f01602080910402602001604051908101604052809291908181526020018280546107629061173a565b80156107af5780601f10610784576101008083540402835291602001916107af565b820191906000526020600020905b81548152906001019060200180831161079257829003601f168201915b505050505081565b60006001600160a01b0382166108215760405162461bcd60e51b815260206004820152602960248201527f4552433732313a2061646472657373207a65726f206973206e6f7420612076616044820152683634b21037bbb732b960b91b60648201526084016105c3565b506001600160a01b031660009081526003602052604090205490565b610845610e0c565b61084f6000610ee4565b565b600067011c37937e08000034146108c15760405162461bcd60e51b815260206004820152602e60248201527f5472616e73616374696f6e2076616c756520646964206e6f7420657175616c2060448201526d746865206d696e7420707269636560901b60648201526084016105c3565b60006008600081546108d2906117c1565b918290555090506127108111156109205760405162461bcd60e51b815260206004820152601260248201527113585e081cdd5c1c1b1e481c995858da195960721b60448201526064016105c3565b6104908382610f36565b6060600180546104a59061173a565b610944338383610f50565b5050565b6109523383610c29565b61096e5760405162461bcd60e51b81526004016105c390611774565b61097a8484848461101e565b50505050565b6060600061098d836106c9565b6001600160a01b0316036109fb5760405162461bcd60e51b815260206004820152602f60248201527f4552433732314d657461646174613a2055524920717565727920666f72206e6f60448201526e3732bc34b9ba32b73a103a37b5b2b760891b60648201526084016105c3565b600060078054610a0a9061173a565b905011610a265760405180602001604052806000815250610490565b6007610a3183611051565b604051602001610a42929190611804565b60405160208183030381529060405292915050565b6040516371d4ed8d60e11b81526001600160a01b0382811660048301526000917f00000000000000000000000000000000000000000000000000000000000000009091169063e3a9db1a90602401602060405180830381865afa158015610ac2573d6000803e3d6000fd5b505050506040513d601f19601f8201168201806040525081019061049091906118aa565b610aee610e0c565b6001600160a01b038116610b535760405162461bcd60e51b815260206004820152602660248201527f4f776e61626c653a206e6577206f776e657220697320746865207a65726f206160448201526564647265737360d01b60648201526084016105c3565b6106ab81610ee4565b6000818152600260205260409020546001600160a01b03166106ab5760405162461bcd60e51b8152602060048201526018602482015277115490cdcc8c4e881a5b9d985b1a59081d1bdad95b88125160421b60448201526064016105c3565b600081815260046020526040902080546001600160a01b0319166001600160a01b0384169081179091558190610bf0826106c9565b6001600160a01b03167f8c5be1e5ebec7d5bd14f71427d1e84f3dd0314c0f7b2291e5b200ac8c7c3b92560405160405180910390a45050565b600080610c35836106c9565b9050806001600160a01b0316846001600160a01b03161480610c7c57506001600160a01b0380821660009081526005602090815260408083209388168352929052205460ff165b80610ca05750836001600160a01b0316610c9584610528565b6001600160a01b0316145b949350505050565b826001600160a01b0316610cbb826106c9565b6001600160a01b031614610ce15760405162461bcd60e51b81526004016105c3906118c3565b6001600160a01b038216610d435760405162461bcd60e51b8152602060048201526024808201527f4552433732313a207472616e7366657220746f20746865207a65726f206164646044820152637265737360e01b60648201526084016105c3565b826001600160a01b0316610d56826106c9565b6001600160a01b031614610d7c5760405162461bcd60e51b81526004016105c3906118c3565b600081815260046020908152604080832080546001600160a01b03199081169091556001600160a01b0387811680865260038552838620805460001901905590871680865283862080546001019055868652600290945282852080549092168417909155905184937fddf252ad1be2c89b69c2b068fc378daa952ba7f163c4a11628f55a4df523b3ef91a4505050565b6006546001600160a01b0316331461084f5760405162461bcd60e51b815260206004820181905260248201527f4f776e61626c653a2063616c6c6572206973206e6f7420746865206f776e657260448201526064016105c3565b6040516351cff8d960e01b81526001600160a01b0382811660048301527f000000000000000000000000000000000000000000000000000000000000000016906351cff8d990602401600060405180830381600087803b158015610ec957600080fd5b505af1158015610edd573d6000803e3d6000fd5b5050505050565b600680546001600160a01b038381166001600160a01b0319831681179093556040519116919082907f8be0079c531659141344cd1fd0a4f28419497f9722a3daafe3b4186f6b6457e090600090a35050565b6109448282604051806020016040528060008152506110e4565b816001600160a01b0316836001600160a01b031603610fb15760405162461bcd60e51b815260206004820152601960248201527f4552433732313a20617070726f766520746f2063616c6c65720000000000000060448201526064016105c3565b6001600160a01b03838116600081815260056020908152604080832094871680845294825291829020805460ff191686151590811790915591519182527f17307eab39ab6107e8899845ad3d59bd9653f200f220920489ca2b5937696c31910160405180910390a3505050565b611029848484610ca8565b61103584848484611117565b61097a5760405162461bcd60e51b81526004016105c390611908565b6060600061105e83611218565b600101905060008167ffffffffffffffff81111561107e5761107e611616565b6040519080825280601f01601f1916602001820160405280156110a8576020820181803683370190505b5090508181016020015b600019016f181899199a1a9b1b9c1cb0b131b232b360811b600a86061a8153600a85049450846110b257509392505050565b6110ee83836112f0565b6110fb6000848484611117565b6106645760405162461bcd60e51b81526004016105c390611908565b60006001600160a01b0384163b1561120d57604051630a85bd0160e11b81526001600160a01b0385169063150b7a029061115b90339089908890889060040161195a565b6020604051808303816000875af1925050508015611196575060408051601f3d908101601f1916820190925261119391810190611997565b60015b6111f3573d8080156111c4576040519150601f19603f3d011682016040523d82523d6000602084013e6111c9565b606091505b5080516000036111eb5760405162461bcd60e51b81526004016105c390611908565b805181602001fd5b6001600160e01b031916630a85bd0160e11b149050610ca0565b506001949350505050565b60008072184f03e93ff9f4daa797ed6e38ed64bf6a1f0160401b83106112575772184f03e93ff9f4daa797ed6e38ed64bf6a1f0160401b830492506040015b6d04ee2d6d415b85acef81000000008310611283576d04ee2d6d415b85acef8100000000830492506020015b662386f26fc1000083106112a157662386f26fc10000830492506010015b6305f5e10083106112b9576305f5e100830492506008015b61271083106112cd57612710830492506004015b606483106112df576064830492506002015b600a83106104905760010192915050565b6001600160a01b0382166113465760405162461bcd60e51b815260206004820181905260248201527f4552433732313a206d696e7420746f20746865207a65726f206164647265737360448201526064016105c3565b6000818152600260205260409020546001600160a01b0316156113ab5760405162461bcd60e51b815260206004820152601c60248201527f4552433732313a20746f6b656e20616c7265616479206d696e7465640000000060448201526064016105c3565b6000818152600260205260409020546001600160a01b0316156114105760405162461bcd60e51b815260206004820152601c60248201527f4552433732313a20746f6b656e20616c7265616479206d696e7465640000000060448201526064016105c3565b6001600160a01b038216600081815260036020908152604080832080546001019055848352600290915280822080546001600160a01b0319168417905551839291907fddf252ad1be2c89b69c2b068fc378daa952ba7f163c4a11628f55a4df523b3ef908290a45050565b6001600160e01b0319811681146106ab57600080fd5b6000602082840312156114a357600080fd5b81356114ae8161147b565b9392505050565b60005b838110156114d05781810151838201526020016114b8565b8381111561097a5750506000910152565b600081518084526114f98160208601602086016114b5565b601f01601f19169290920160200192915050565b6020815260006114ae60208301846114e1565b60006020828403121561153257600080fd5b5035919050565b6001600160a01b03811681146106ab57600080fd5b6000806040838503121561156157600080fd5b823561156c81611539565b946020939093013593505050565b60008060006060848603121561158f57600080fd5b833561159a81611539565b925060208401356115aa81611539565b929592945050506040919091013590565b6000602082840312156115cd57600080fd5b81356114ae81611539565b600080604083850312156115eb57600080fd5b82356115f681611539565b91506020830135801515811461160b57600080fd5b809150509250929050565b634e487b7160e01b600052604160045260246000fd5b6000806000806080858703121561164257600080fd5b843561164d81611539565b9350602085013561165d81611539565b925060408501359150606085013567ffffffffffffffff8082111561168157600080fd5b818701915087601f83011261169557600080fd5b8135818111156116a7576116a7611616565b604051601f8201601f19908116603f011681019083821181831017156116cf576116cf611616565b816040528281528a60208487010111156116e857600080fd5b82602086016020830137600060208483010152809550505050505092959194509250565b6000806040838503121561171f57600080fd5b823561172a81611539565b9150602083013561160b81611539565b600181811c9082168061174e57607f821691505b60208210810361176e57634e487b7160e01b600052602260045260246000fd5b50919050565b6020808252602d908201527f4552433732313a2063616c6c6572206973206e6f7420746f6b656e206f776e6560408201526c1c881bdc88185c1c1c9bdd9959609a1b606082015260800190565b6000600182016117e157634e487b7160e01b600052601160045260246000fd5b5060010190565b600081516117fa8185602086016114b5565b9290920192915050565b600080845481600182811c91508083168061182057607f831692505b6020808410820361183f57634e487b7160e01b86526022600452602486fd5b818015611853576001811461186457611891565b60ff19861689528489019650611891565b60008b81526020902060005b868110156118895781548b820152908501908301611870565b505084890196505b5050505050506118a181856117e8565b95945050505050565b6000602082840312156118bc57600080fd5b5051919050565b60208082526025908201527f4552433732313a207472616e736665722066726f6d20696e636f72726563742060408201526437bbb732b960d91b606082015260800190565b60208082526032908201527f4552433732313a207472616e7366657220746f206e6f6e20455243373231526560408201527131b2b4bb32b91034b6b83632b6b2b73a32b960711b606082015260800190565b6001600160a01b038581168252841660208201526040810183905260806060820181905260009061198d908301846114e1565b9695505050505050565b6000602082840312156119a957600080fd5b81516114ae8161147b56fea2646970667358221220bf965a338d9df65ab504ed7291997698177394a828916a808735015f988b928c64736f6c634300080d0033608060405234801561001057600080fd5b5061001a3361001f565b61006f565b600080546001600160a01b038381166001600160a01b0319831681178455604051919092169283917f8be0079c531659141344cd1fd0a4f28419497f9722a3daafe3b4186f6b6457e09190a35050565b61050d8061007e6000396000f3fe6080604052600436106100555760003560e01c806351cff8d91461005a578063715018a61461007c5780638da5cb5b14610091578063e3a9db1a146100be578063f2fde38b14610102578063f340fa0114610122575b600080fd5b34801561006657600080fd5b5061007a61007536600461048d565b610135565b005b34801561008857600080fd5b5061007a6101ac565b34801561009d57600080fd5b506000546040516001600160a01b0390911681526020015b60405180910390f35b3480156100ca57600080fd5b506100f46100d936600461048d565b6001600160a01b031660009081526001602052604090205490565b6040519081526020016100b5565b34801561010e57600080fd5b5061007a61011d36600461048d565b6101c0565b61007a61013036600461048d565b61023e565b61013d6102b0565b6001600160a01b0381166000818152600160205260408120805491905590610165908261030a565b816001600160a01b03167f7084f5476618d8e60b11ef0d7d3f06914655adb8793e28ff7f018d4c76d505d5826040516101a091815260200190565b60405180910390a25050565b6101b46102b0565b6101be6000610428565b565b6101c86102b0565b6001600160a01b0381166102325760405162461bcd60e51b815260206004820152602660248201527f4f776e61626c653a206e6577206f776e657220697320746865207a65726f206160448201526564647265737360d01b60648201526084015b60405180910390fd5b61023b81610428565b50565b6102466102b0565b6001600160a01b0381166000908152600160205260408120805434928392916102709084906104b1565b90915550506040518181526001600160a01b038316907f2da466a7b24304f47e87fa2e1e5a81b9831ce54fec19055ce277ca2f39ba42c4906020016101a0565b6000546001600160a01b031633146101be5760405162461bcd60e51b815260206004820181905260248201527f4f776e61626c653a2063616c6c6572206973206e6f7420746865206f776e65726044820152606401610229565b8047101561035a5760405162461bcd60e51b815260206004820152601d60248201527f416464726573733a20696e73756666696369656e742062616c616e63650000006044820152606401610229565b6000826001600160a01b03168260405160006040518083038185875af1925050503d80600081146103a7576040519150601f19603f3d011682016040523d82523d6000602084013e6103ac565b606091505b50509050806104235760405162461bcd60e51b815260206004820152603a60248201527f416464726573733a20756e61626c6520746f2073656e642076616c75652c207260448201527f6563697069656e74206d617920686176652072657665727465640000000000006064820152608401610229565b505050565b600080546001600160a01b038381166001600160a01b0319831681178455604051919092169283917f8be0079c531659141344cd1fd0a4f28419497f9722a3daafe3b4186f6b6457e09190a35050565b6001600160a01b038116811461023b57600080fd5b60006020828403121561049f57600080fd5b81356104aa81610478565b9392505050565b600082198211156104d257634e487b7160e01b600052601160045260246000fd5b50019056fea2646970667358221220a8c0939df44ee55d6982d8c41ad799db5bf286fe07b288ac758a8da60439648e64736f6c634300080d0033",
    "linkReferences": {}
  },
  "methodIdentifiers": {
    "MINT_PRICE()": "c002d23d",
    "TOTAL_SUPPLY()": "902d55a5",
    "approve(address,uint256)": "095ea7b3",
    "balanceOf(address)": "70a08231",
    "baseURI()": "6c0360eb",
    "currentTokenId()": "009a9b7b",
    "getApproved(uint256)": "081812fc",
    "isApprovedForAll(address,address)": "e985e9c5",
    "mintTo(address)": "755edd17",
    "name()": "06fdde03",
    "owner()": "8da5cb5b",
    "ownerOf(uint256)": "6352211e",
    "payments(address)": "e2982c21",
    "renounceOwnership()": "715018a6",
    "safeTransferFrom(address,address,uint256)": "42842e0e",
    "safeTransferFrom(address,address,uint256,bytes)": "b88d4fde",
    "setApprovalForAll(address,bool)": "a22cb465",
    "supportsInterface(bytes4)": "01ffc9a7",
    "symbol()": "95d89b41",
    "tokenURI(uint256)": "c87b56dd",
    "transferFrom(address,address,uint256)": "23b872dd",
    "transferOwnership(address)": "f2fde38b",
    "withdrawPayments(address)": "31b3eb94"
  },
  "id": 33
}