{
  "abi": [
    {
      "anonymous": false,
      "inputs": [
        {
          "indexed": true,
          "internalType": "address",
          "name": "_addr",
          "type": "address"
        },
        {
          "indexed": true,
          "internalType": "address",
          "name": "_token",
          "type": "address"
        },
        {
          "indexed": false,
          "internalType": "uint256",
          "name": "timestamp",
          "type": "uint256"
        },
        {
          "indexed": false,
          "internalType": "uint256",
          "name": "amount",
          "type": "uint256"
        }
      ],
      "name": "Deposit",
      "type": "event"
    },
    {
      "anonymous": false,
      "inputs": [
        {
          "indexed": true,
          "internalType": "address",
          "name": "previousOwner",
          "type": "address"
        },
        {
          "indexed": true,
          "internalType": "address",
          "name": "newOwner",
          "type": "address"
        }
      ],
      "name": "OwnershipTransferred",
      "type": "event"
    },
    {
      "anonymous": false,
      "inputs": [
        {
          "indexed": true,
          "internalType": "address",
          "name": "_addr",
          "type": "address"
        },
        {
          "indexed": true,
          "internalType": "address",
          "name": "_token",
          "type": "address"
        },
        {
          "indexed": false,
          "internalType": "uint256",
          "name": "timestamp",
          "type": "uint256"
        },
        {
          "indexed": false,
          "internalType": "uint256",
          "name": "amount",
          "type": "uint256"
        }
      ],
      "name": "Withdrawal",
      "type": "event"
    },
    {
      "inputs": [
        {
          "internalType": "address",
          "name": "token",
          "type": "address"
        },
        {
          "internalType": "uint256",
          "name": "amount",
          "type": "uint256"
        }
      ],
      "name": "deposit",
      "outputs": [],
      "stateMutability": "nonpayable",
      "type": "function"
    },
    {
      "inputs": [],
      "name": "endDate",
      "outputs": [
        {
          "internalType": "uint256",
          "name": "",
          "type": "uint256"
        }
      ],
      "stateMutability": "view",
      "type": "function"
    },
    {
      "inputs": [
        {
          "internalType": "address",
          "name": "",
          "type": "address"
        },
        {
          "internalType": "address",
          "name": "",
          "type": "address"
        }
      ],
      "name": "info",
      "outputs": [
        {
          "internalType": "uint256",
          "name": "",
          "type": "uint256"
        }
      ],
      "stateMutability": "view",
      "type": "function"
    },
    {
      "inputs": [
        {
          "internalType": "uint256",
          "name": "endDateInSeconds",
          "type": "uint256"
        }
      ],
      "name": "initialize",
      "outputs": [],
      "stateMutability": "nonpayable",
      "type": "function"
    },
    {
      "inputs": [],
      "name": "isInitialized",
      "outputs": [
        {
          "internalType": "bool",
          "name": "",
          "type": "bool"
        }
      ],
      "stateMutability": "view",
      "type": "function"
    },
    {
      "inputs": [],
      "name": "owner",
      "outputs": [
        {
          "internalType": "address",
          "name": "",
          "type": "address"
        }
      ],
      "stateMutability": "view",
      "type": "function"
    },
    {
      "inputs": [],
      "name": "renounceOwnership",
      "outputs": [],
      "stateMutability": "nonpayable",
      "type": "function"
    },
    {
      "inputs": [],
      "name": "startDate",
      "outputs": [
        {
          "internalType": "uint256",
          "name": "",
          "type": "uint256"
        }
      ],
      "stateMutability": "view",
      "type": "function"
    },
    {
      "inputs": [
        {
          "internalType": "address",
          "name": "newOwner",
          "type": "address"
        }
      ],
      "name": "transferOwnership",
      "outputs": [],
      "stateMutability": "nonpayable",
      "type": "function"
    },
    {
      "inputs": [
        {
          "internalType": "address",
          "name": "token",
          "type": "address"
        }
      ],
      "name": "whitelistToken",
      "outputs": [],
      "stateMutability": "nonpayable",
      "type": "function"
    },
    {
      "inputs": [
        {
          "internalType": "address",
          "name": "",
          "type": "address"
        }
      ],
      "name": "whitelisted",
      "outputs": [
        {
          "internalType": "bool",
          "name": "",
          "type": "bool"
        }
      ],
      "stateMutability": "view",
      "type": "function"
    },
    {
      "inputs": [
        {
          "internalType": "address",
          "name": "token",
          "type": "address"
        }
      ],
      "name": "withdraw",
      "outputs": [],
      "stateMutability": "nonpayable",
      "type": "function"
    }
  ],
  "bytecode": {
    "object": "0x608060405234801561001057600080fd5b5061001a33610023565b60018055610073565b600080546001600160a01b038381166001600160a01b0319831681178455604051919092169283917f8be0079c531659141344cd1fd0a4f28419497f9722a3daafe3b4186f6b6457e09190a35050565b610c7f806100826000396000f3fe608060405234801561001057600080fd5b50600436106100b45760003560e01c8063715018a611610071578063715018a6146101585780638da5cb5b14610160578063c24a0f8b1461017b578063d936547e14610184578063f2fde38b146101a7578063fe4b84df146101ba57600080fd5b80630b97bc86146100b957806325058c26146100d5578063392e53cd1461010057806347e7ef241461011d57806351cff8d9146101325780636247f6f214610145575b600080fd5b6100c260035481565b6040519081526020015b60405180910390f35b6100c26100e3366004610aee565b600660209081526000928352604080842090915290825290205481565b60025461010d9060ff1681565b60405190151581526020016100cc565b61013061012b366004610b21565b6101cd565b005b610130610140366004610b4b565b610382565b610130610153366004610b4b565b610500565b610130610574565b6000546040516001600160a01b0390911681526020016100cc565b6100c260045481565b61010d610192366004610b4b565b60056020526000908152604090205460ff1681565b6101306101b5366004610b4b565b610588565b6101306101c8366004610b6d565b6105fe565b6101d56106c4565b60025460ff1661022c5760405162461bcd60e51b815260206004820152601860248201527f636f6e7472616374206e6f7420696e697469616c697a6564000000000000000060448201526064015b60405180910390fd5b6001600160a01b03821660009081526005602052604090205460ff1615156001146102915760405162461bcd60e51b81526020600482015260156024820152741d1bdad95b881b9bdd081dda1a5d195b1a5cdd1959605a1b6044820152606401610223565b60045442106102d85760405162461bcd60e51b81526020600482015260136024820152723637b1b5903832b934b7b21034b99037bb32b960691b6044820152606401610223565b6102e48233308461071d565b3360009081526006602090815260408083206001600160a01b0386168452909152902054610313908290610b86565b3360008181526006602090815260408083206001600160a01b0388168085529083529281902094909455835142815290810185905290927fdcbc1c05240f31ff3ad067ef1ee35ce4997762752e3a095284754544f4c709d7910160405180910390a361037e60018055565b5050565b61038a6106c4565b42600454106103d35760405162461bcd60e51b81526020600482015260156024820152740746f6b656e207374696c6c206c6f636b656420757605c1b6044820152606401610223565b3360009081526006602090815260408083206001600160a01b03851684529091529020546104435760405162461bcd60e51b815260206004820181905260248201527f6e6f2061737365747320776572652070726576696f75736c79206c6f636b65646044820152606401610223565b3360008181526006602090815260408083206001600160a01b038616845290915290205461047291839161078e565b3360008181526006602090815260408083206001600160a01b03861680855290835292819020548151428152928301529192917fc2b4a290c20fb28939d29f102514fbffd2b73c059ffba8b78250c94161d5fcc6910160405180910390a33360009081526006602090815260408083206001600160a01b03851684529091528120556104fd60018055565b50565b6105086107c3565b6001600160a01b0381166105505760405162461bcd60e51b815260206004820152600f60248201526e696e76616c6964206164647265737360881b6044820152606401610223565b6001600160a01b03166000908152600560205260409020805460ff19166001179055565b61057c6107c3565b610586600061081d565b565b6105906107c3565b6001600160a01b0381166105f55760405162461bcd60e51b815260206004820152602660248201527f4f776e61626c653a206e6577206f776e657220697320746865207a65726f206160448201526564647265737360d01b6064820152608401610223565b6104fd8161081d565b6106066107c3565b60025460ff16156106595760405162461bcd60e51b815260206004820152601c60248201527f636f6e747261637420616c726561647920696e697469616c697a6564000000006044820152606401610223565b6275558081116106a05760405162461bcd60e51b815260206004820152601260248201527136b4b71032b732103230ba329032b93937b960711b6044820152606401610223565b4260038190556106b1908290610b86565b600455506002805460ff19166001179055565b6002600154036107165760405162461bcd60e51b815260206004820152601f60248201527f5265656e7472616e637947756172643a207265656e7472616e742063616c6c006044820152606401610223565b6002600155565b6040516001600160a01b03808516602483015283166044820152606481018290526107889085906323b872dd60e01b906084015b60408051601f198184030181529190526020810180516001600160e01b03166001600160e01b03199093169290921790915261086d565b50505050565b6040516001600160a01b0383166024820152604481018290526107be90849063a9059cbb60e01b90606401610751565b505050565b6000546001600160a01b031633146105865760405162461bcd60e51b815260206004820181905260248201527f4f776e61626c653a2063616c6c6572206973206e6f7420746865206f776e65726044820152606401610223565b600080546001600160a01b038381166001600160a01b0319831681178455604051919092169283917f8be0079c531659141344cd1fd0a4f28419497f9722a3daafe3b4186f6b6457e09190a35050565b60006108c2826040518060400160405280602081526020017f5361666545524332303a206c6f772d6c6576656c2063616c6c206661696c6564815250856001600160a01b03166109429092919063ffffffff16565b90508051600014806108e35750808060200190518101906108e39190610bac565b6107be5760405162461bcd60e51b815260206004820152602a60248201527f5361666545524332303a204552433230206f7065726174696f6e20646964206e6044820152691bdd081cdd58d8d9595960b21b6064820152608401610223565b60606109518484600085610959565b949350505050565b6060824710156109ba5760405162461bcd60e51b815260206004820152602660248201527f416464726573733a20696e73756666696369656e742062616c616e636520666f6044820152651c8818d85b1b60d21b6064820152608401610223565b600080866001600160a01b031685876040516109d69190610bfa565b60006040518083038185875af1925050503d8060008114610a13576040519150601f19603f3d011682016040523d82523d6000602084013e610a18565b606091505b5091509150610a2987838387610a34565b979650505050505050565b60608315610aa3578251600003610a9c576001600160a01b0385163b610a9c5760405162461bcd60e51b815260206004820152601d60248201527f416464726573733a2063616c6c20746f206e6f6e2d636f6e74726163740000006044820152606401610223565b5081610951565b6109518383815115610ab85781518083602001fd5b8060405162461bcd60e51b81526004016102239190610c16565b80356001600160a01b0381168114610ae957600080fd5b919050565b60008060408385031215610b0157600080fd5b610b0a83610ad2565b9150610b1860208401610ad2565b90509250929050565b60008060408385031215610b3457600080fd5b610b3d83610ad2565b946020939093013593505050565b600060208284031215610b5d57600080fd5b610b6682610ad2565b9392505050565b600060208284031215610b7f57600080fd5b5035919050565b60008219821115610ba757634e487b7160e01b600052601160045260246000fd5b500190565b600060208284031215610bbe57600080fd5b81518015158114610b6657600080fd5b60005b83811015610be9578181015183820152602001610bd1565b838111156107885750506000910152565b60008251610c0c818460208701610bce565b9190910192915050565b6020815260008251806020840152610c35816040850160208701610bce565b601f01601f1916919091016040019291505056fea264697066735822122021424b88d1c88688cd034f3b1c5a13d31b95b8b5b92e34f9dfe7dd18b2cde84164736f6c634300080d0033",
    "linkReferences": {}
  },
  "methodIdentifiers": {
    "deposit(address,uint256)": "47e7ef24",
    "endDate()": "c24a0f8b",
    "info(address,address)": "25058c26",
    "initialize(uint256)": "fe4b84df",
    "isInitialized()": "392e53cd",
    "owner()": "8da5cb5b",
    "renounceOwnership()": "715018a6",
    "startDate()": "0b97bc86",
    "transferOwnership(address)": "f2fde38b",
    "whitelistToken(address)": "6247f6f2",
    "whitelisted(address)": "d936547e",
    "withdraw(address)": "51cff8d9"
  },
  "id": 7
}