{
  "abi": [
    {
      "inputs": [
        {
          "internalType": "address",
          "name": "_tokenAddress",
          "type": "address"
        },
        {
          "internalType": "address",
          "name": "_nftAddress",
          "type": "address"
        }
      ],
      "stateMutability": "nonpayable",
      "type": "constructor"
    },
    {
      "inputs": [],
      "name": "TokenLockUp_AmountShouldBeGreaterThanZero",
      "type": "error"
    },
    {
      "inputs": [],
      "name": "TokenLockUp_DepositDeadlineNotSet",
      "type": "error"
    },
    {
      "inputs": [],
      "name": "TokenLockUp_DepositDeadlineReached",
      "type": "error"
    },
    {
      "inputs": [],
      "name": "TokenLockUp_Invalid_Index",
      "type": "error"
    },
    {
      "inputs": [],
      "name": "TokenLockUp_LockDurationShouldBeGreaterThanZero",
      "type": "error"
    },
    {
      "inputs": [],
      "name": "TokenLockUp_PreviousDeadlineNotEnded",
      "type": "error"
    },
    {
      "inputs": [],
      "name": "TokenLockUp_TokensAlreadyWithdrawn",
      "type": "error"
    },
    {
      "inputs": [],
      "name": "TokenLockUp_TokensAreStillLocked",
      "type": "error"
    },
    {
      "anonymous": false,
      "inputs": [
        {
          "indexed": true,
          "internalType": "address",
          "name": "_addr",
          "type": "address"
        },
        {
          "indexed": false,
          "internalType": "uint256",
          "name": "timestamp",
          "type": "uint256"
        },
        {
          "indexed": false,
          "internalType": "uint256",
          "name": "amount",
          "type": "uint256"
        }
      ],
      "name": "Deposit",
      "type": "event"
    },
    {
      "anonymous": false,
      "inputs": [
        {
          "indexed": true,
          "internalType": "address",
          "name": "previousOwner",
          "type": "address"
        },
        {
          "indexed": true,
          "internalType": "address",
          "name": "newOwner",
          "type": "address"
        }
      ],
      "name": "OwnershipTransferred",
      "type": "event"
    },
    {
      "anonymous": false,
      "inputs": [
        {
          "indexed": false,
          "internalType": "address",
          "name": "account",
          "type": "address"
        }
      ],
      "name": "Paused",
      "type": "event"
    },
    {
      "anonymous": false,
      "inputs": [
        {
          "indexed": false,
          "internalType": "address",
          "name": "account",
          "type": "address"
        }
      ],
      "name": "Unpaused",
      "type": "event"
    },
    {
      "anonymous": false,
      "inputs": [
        {
          "indexed": true,
          "internalType": "address",
          "name": "_addr",
          "type": "address"
        },
        {
          "indexed": false,
          "internalType": "uint256",
          "name": "timestamp",
          "type": "uint256"
        },
        {
          "indexed": false,
          "internalType": "uint256",
          "name": "amount",
          "type": "uint256"
        }
      ],
      "name": "Withdrawal",
      "type": "event"
    },
    {
      "inputs": [
        {
          "internalType": "uint256",
          "name": "_amount",
          "type": "uint256"
        },
        {
          "internalType": "uint256",
          "name": "_lockDuration",
          "type": "uint256"
        }
      ],
      "name": "deposit",
      "outputs": [],
      "stateMutability": "nonpayable",
      "type": "function"
    },
    {
      "inputs": [],
      "name": "depositDeadline",
      "outputs": [
        {
          "internalType": "uint256",
          "name": "",
          "type": "uint256"
        }
      ],
      "stateMutability": "view",
      "type": "function"
    },
    {
      "inputs": [],
      "name": "getUserLockedBatchTokenCount",
      "outputs": [
        {
          "internalType": "uint256",
          "name": "",
          "type": "uint256"
        }
      ],
      "stateMutability": "view",
      "type": "function"
    },
    {
      "inputs": [
        {
          "internalType": "address",
          "name": "",
          "type": "address"
        },
        {
          "internalType": "uint256",
          "name": "",
          "type": "uint256"
        }
      ],
      "name": "locks",
      "outputs": [
        {
          "internalType": "uint256",
          "name": "amount",
          "type": "uint256"
        },
        {
          "internalType": "uint256",
          "name": "lockDuration",
          "type": "uint256"
        },
        {
          "internalType": "uint256",
          "name": "lockStart",
          "type": "uint256"
        },
        {
          "internalType": "bool",
          "name": "withdrawn",
          "type": "bool"
        }
      ],
      "stateMutability": "view",
      "type": "function"
    },
    {
      "inputs": [],
      "name": "nftContract",
      "outputs": [
        {
          "internalType": "contract IOverlayNFT",
          "name": "",
          "type": "address"
        }
      ],
      "stateMutability": "view",
      "type": "function"
    },
    {
      "inputs": [],
      "name": "owner",
      "outputs": [
        {
          "internalType": "address",
          "name": "",
          "type": "address"
        }
      ],
      "stateMutability": "view",
      "type": "function"
    },
    {
      "inputs": [],
      "name": "pause",
      "outputs": [],
      "stateMutability": "nonpayable",
      "type": "function"
    },
    {
      "inputs": [],
      "name": "paused",
      "outputs": [
        {
          "internalType": "bool",
          "name": "",
          "type": "bool"
        }
      ],
      "stateMutability": "view",
      "type": "function"
    },
    {
      "inputs": [],
      "name": "renounceOwnership",
      "outputs": [],
      "stateMutability": "nonpayable",
      "type": "function"
    },
    {
      "inputs": [
        {
          "internalType": "uint256",
          "name": "_depositDeadline",
          "type": "uint256"
        }
      ],
      "name": "setDepositDeadline",
      "outputs": [],
      "stateMutability": "nonpayable",
      "type": "function"
    },
    {
      "inputs": [
        {
          "internalType": "address",
          "name": "_nftAddress",
          "type": "address"
        }
      ],
      "name": "setNftContractnAddress",
      "outputs": [],
      "stateMutability": "nonpayable",
      "type": "function"
    },
    {
      "inputs": [
        {
          "internalType": "address",
          "name": "_newTokenAddress",
          "type": "address"
        }
      ],
      "name": "setTokenAddress",
      "outputs": [],
      "stateMutability": "nonpayable",
      "type": "function"
    },
    {
      "inputs": [],
      "name": "token",
      "outputs": [
        {
          "internalType": "contract IERC20",
          "name": "",
          "type": "address"
        }
      ],
      "stateMutability": "view",
      "type": "function"
    },
    {
      "inputs": [
        {
          "internalType": "address",
          "name": "newOwner",
          "type": "address"
        }
      ],
      "name": "transferOwnership",
      "outputs": [],
      "stateMutability": "nonpayable",
      "type": "function"
    },
    {
      "inputs": [],
      "name": "unpause",
      "outputs": [],
      "stateMutability": "nonpayable",
      "type": "function"
    },
    {
      "inputs": [
        {
          "internalType": "uint256",
          "name": "_index",
          "type": "uint256"
        }
      ],
      "name": "withdrawTokens",
      "outputs": [],
      "stateMutability": "nonpayable",
      "type": "function"
    }
  ],
  "bytecode": {
    "object": "0x608060405234801561001057600080fd5b50604051610f3c380380610f3c83398101604081905261002f916100e6565b6100383361007a565b6000805460ff60a01b1916905560018055600280546001600160a01b039384166001600160a01b03199182161790915560038054929093169116179055610119565b600080546001600160a01b038381166001600160a01b0319831681178455604051919092169283917f8be0079c531659141344cd1fd0a4f28419497f9722a3daafe3b4186f6b6457e09190a35050565b80516001600160a01b03811681146100e157600080fd5b919050565b600080604083850312156100f957600080fd5b610102836100ca565b9150610110602084016100ca565b90509250929050565b610e14806101286000396000f3fe608060405234801561001057600080fd5b50600436106101005760003560e01c80638da5cb5b11610097578063d8a8608111610066578063d8a8608114610213578063e2bbb15814610226578063f2fde38b14610239578063fc0c546a1461024c57600080fd5b80638da5cb5b1461019357806396d284b4146101b8578063b425f802146101cb578063d56d229d1461020057600080fd5b806361603d89116100d357806361603d8914610157578063715018a61461016e5780638456cb5914610176578063866a968a1461017e57600080fd5b806326a4e8d214610105578063315a095d1461011a5780633f4ba83a1461012d5780635c975abb14610135575b600080fd5b610118610113366004610c5d565b61025f565b005b610118610128366004610c7f565b610289565b6101186103c0565b600054600160a01b900460ff1660405190151581526020015b60405180910390f35b61016060045481565b60405190815260200161014e565b6101186103ec565b6101186103fe565b33600090815260056020526040902054610160565b6000546001600160a01b03165b6040516001600160a01b03909116815260200161014e565b6101186101c6366004610c5d565b610406565b6101de6101d9366004610c98565b610430565b604080519485526020850193909352918301521515606082015260800161014e565b6003546101a0906001600160a01b031681565b610118610221366004610c7f565b610479565b610118610234366004610cc2565b6104a9565b610118610247366004610c5d565b610683565b6002546101a0906001600160a01b031681565b6102676106fe565b600280546001600160a01b0319166001600160a01b0392909216919091179055565b610291610758565b336000908152600560205260409020548111156102c157604051630656b08160e41b815260040160405180910390fd5b3360009081526005602052604081208054839081106102e2576102e2610ce4565b60009182526020909120600490910201600381015490915060ff161561031b57604051633e1457df60e11b815260040160405180910390fd5b8060010154816002015461032f9190610d10565b42101561034f576040516323110c5960e21b815260040160405180910390fd5b805460038201805460ff19166001179055600254610377906001600160a01b031633836107b1565b604080514281526020810183905233917fdf273cb619d95419a9cd0ec88123a0538c85064229baa6363788f743fff90deb910160405180910390a250506103bd60018055565b50565b60045442106103e257604051636bf10ba560e11b815260040160405180910390fd5b6103ea610819565b565b6103f46106fe565b6103ea600061086e565b6103ea6108be565b61040e6106fe565b600380546001600160a01b0319166001600160a01b0392909216919091179055565b6005602052816000526040600020818154811061044c57600080fd5b60009182526020909120600490910201805460018201546002830154600390930154919450925060ff1684565b6104816106fe565b4260045411156104a457604051631a5890e560e21b815260040160405180910390fd5b600455565b6104b1610758565b6104b9610901565b816000036104da5760405163f2ff5dcf60e01b815260040160405180910390fd5b806000036104fb57604051633f12d50d60e01b815260040160405180910390fd5b60045442111561051e57604051632402b17560e01b815260040160405180910390fd5b600254610536906001600160a01b031633308561094e565b3360009081526005602090815260408083208151608081018352868152808401868152429382019384526060820186815283546001808201865594885295872092516004909602909201948555519184019190915590516002830155516003909101805460ff19169115159190911790556105b48383600292915050565b905060005b818110156106315760035460405163755edd1760e01b81523360048201526001600160a01b039091169063755edd1790602401600060405180830381600087803b15801561060657600080fd5b505af115801561061a573d6000803e3d6000fd5b50505050808061062990610d28565b9150506105b9565b50337f90890809c654f11d6e72a28fa60149770a0d11ec6c92319d6ceb2bb0a4ea1a1561065e8442610d10565b60408051918252602082018790520160405180910390a25061067f60018055565b5050565b61068b6106fe565b6001600160a01b0381166106f55760405162461bcd60e51b815260206004820152602660248201527f4f776e61626c653a206e6577206f776e657220697320746865207a65726f206160448201526564647265737360d01b60648201526084015b60405180910390fd5b6103bd8161086e565b6000546001600160a01b031633146103ea5760405162461bcd60e51b815260206004820181905260248201527f4f776e61626c653a2063616c6c6572206973206e6f7420746865206f776e657260448201526064016106ec565b6002600154036107aa5760405162461bcd60e51b815260206004820152601f60248201527f5265656e7472616e637947756172643a207265656e7472616e742063616c6c0060448201526064016106ec565b6002600155565b6040516001600160a01b03831660248201526044810182905261081490849063a9059cbb60e01b906064015b60408051601f198184030181529190526020810180516001600160e01b03166001600160e01b03199093169290921790915261098c565b505050565b610821610a61565b6000805460ff60a01b191690557f5db9ee0a495bf2e6ff9c91a7834c1ba4fdd244a5e8aa4e537bd38aeae4b073aa335b6040516001600160a01b03909116815260200160405180910390a1565b600080546001600160a01b038381166001600160a01b0319831681178455604051919092169283917f8be0079c531659141344cd1fd0a4f28419497f9722a3daafe3b4186f6b6457e09190a35050565b6108c6610901565b6000805460ff60a01b1916600160a01b1790557f62e78cea01bee320cd4e420270b5ea74000d11b0c9f74754ebdbfc544b05a2586108513390565b600054600160a01b900460ff16156103ea5760405162461bcd60e51b815260206004820152601060248201526f14185d5cd8589b194e881c185d5cd95960821b60448201526064016106ec565b6040516001600160a01b03808516602483015283166044820152606481018290526109869085906323b872dd60e01b906084016107dd565b50505050565b60006109e1826040518060400160405280602081526020017f5361666545524332303a206c6f772d6c6576656c2063616c6c206661696c6564815250856001600160a01b0316610ab19092919063ffffffff16565b9050805160001480610a02575080806020019051810190610a029190610d41565b6108145760405162461bcd60e51b815260206004820152602a60248201527f5361666545524332303a204552433230206f7065726174696f6e20646964206e6044820152691bdd081cdd58d8d9595960b21b60648201526084016106ec565b600054600160a01b900460ff166103ea5760405162461bcd60e51b815260206004820152601460248201527314185d5cd8589b194e881b9bdd081c185d5cd95960621b60448201526064016106ec565b6060610ac08484600085610ac8565b949350505050565b606082471015610b295760405162461bcd60e51b815260206004820152602660248201527f416464726573733a20696e73756666696369656e742062616c616e636520666f6044820152651c8818d85b1b60d21b60648201526084016106ec565b600080866001600160a01b03168587604051610b459190610d8f565b60006040518083038185875af1925050503d8060008114610b82576040519150601f19603f3d011682016040523d82523d6000602084013e610b87565b606091505b5091509150610b9887838387610ba3565b979650505050505050565b60608315610c12578251600003610c0b576001600160a01b0385163b610c0b5760405162461bcd60e51b815260206004820152601d60248201527f416464726573733a2063616c6c20746f206e6f6e2d636f6e747261637400000060448201526064016106ec565b5081610ac0565b610ac08383815115610c275781518083602001fd5b8060405162461bcd60e51b81526004016106ec9190610dab565b80356001600160a01b0381168114610c5857600080fd5b919050565b600060208284031215610c6f57600080fd5b610c7882610c41565b9392505050565b600060208284031215610c9157600080fd5b5035919050565b60008060408385031215610cab57600080fd5b610cb483610c41565b946020939093013593505050565b60008060408385031215610cd557600080fd5b50508035926020909101359150565b634e487b7160e01b600052603260045260246000fd5b634e487b7160e01b600052601160045260246000fd5b60008219821115610d2357610d23610cfa565b500190565b600060018201610d3a57610d3a610cfa565b5060010190565b600060208284031215610d5357600080fd5b81518015158114610c7857600080fd5b60005b83811015610d7e578181015183820152602001610d66565b838111156109865750506000910152565b60008251610da1818460208701610d63565b9190910192915050565b6020815260008251806020840152610dca816040850160208701610d63565b601f01601f1916919091016040019291505056fea2646970667358221220e831161f73e15e1eda39779487da000494d03c64684ff3f44aa86439639439f264736f6c634300080d0033",
    "linkReferences": {}
  },
  "methodIdentifiers": {
    "deposit(uint256,uint256)": "e2bbb158",
    "depositDeadline()": "61603d89",
    "getUserLockedBatchTokenCount()": "866a968a",
    "locks(address,uint256)": "b425f802",
    "nftContract()": "d56d229d",
    "owner()": "8da5cb5b",
    "pause()": "8456cb59",
    "paused()": "5c975abb",
    "renounceOwnership()": "715018a6",
    "setDepositDeadline(uint256)": "d8a86081",
    "setNftContractnAddress(address)": "96d284b4",
    "setTokenAddress(address)": "26a4e8d2",
    "token()": "fc0c546a",
    "transferOwnership(address)": "f2fde38b",
    "unpause()": "3f4ba83a",
    "withdrawTokens(uint256)": "315a095d"
  },
  "id": 8
}